{"abi":[{"type":"constructor","inputs":[{"name":"_market","type":"address","internalType":"address"},{"name":"_keystoneForwarder","type":"address","internalType":"address"}],"stateMutability":"nonpayable"},{"type":"function","name":"keystoneForwarder","inputs":[],"outputs":[{"name":"","type":"address","internalType":"address"}],"stateMutability":"view"},{"type":"function","name":"market","inputs":[],"outputs":[{"name":"","type":"address","internalType":"contract ICREsolverMarket"}],"stateMutability":"view"},{"type":"function","name":"onReport","inputs":[{"name":"metadata","type":"bytes","internalType":"bytes"},{"name":"report","type":"bytes","internalType":"bytes"}],"outputs":[],"stateMutability":"nonpayable"},{"type":"function","name":"owner","inputs":[],"outputs":[{"name":"","type":"address","internalType":"address"}],"stateMutability":"view"},{"type":"function","name":"renounceOwnership","inputs":[],"outputs":[],"stateMutability":"nonpayable"},{"type":"function","name":"setKeystoneForwarder","inputs":[{"name":"_newForwarder","type":"address","internalType":"address"}],"outputs":[],"stateMutability":"nonpayable"},{"type":"function","name":"transferOwnership","inputs":[{"name":"newOwner","type":"address","internalType":"address"}],"outputs":[],"stateMutability":"nonpayable"},{"type":"event","name":"ForwarderUpdated","inputs":[{"name":"oldForwarder","type":"address","indexed":true,"internalType":"address"},{"name":"newForwarder","type":"address","indexed":true,"internalType":"address"}],"anonymous":false},{"type":"event","name":"OwnershipTransferred","inputs":[{"name":"previousOwner","type":"address","indexed":true,"internalType":"address"},{"name":"newOwner","type":"address","indexed":true,"internalType":"address"}],"anonymous":false},{"type":"event","name":"ReportReceived","inputs":[{"name":"workflowId","type":"bytes32","indexed":true,"internalType":"bytes32"},{"name":"marketId","type":"uint256","indexed":true,"internalType":"uint256"}],"anonymous":false},{"type":"error","name":"OwnableInvalidOwner","inputs":[{"name":"owner","type":"address","internalType":"address"}]},{"type":"error","name":"OwnableUnauthorizedAccount","inputs":[{"name":"account","type":"address","internalType":"address"}]},{"type":"error","name":"UnauthorizedForwarder","inputs":[{"name":"caller","type":"address","internalType":"address"}]}],"bytecode":{"object":"0x60a060405234801561000f575f5ffd5b506040516112ad3803806112ad8339818101604052810190610031919061024c565b335f73ffffffffffffffffffffffffffffffffffffffff168173ffffffffffffffffffffffffffffffffffffffff16036100a2575f6040517f1e4fbdf70000000000000000000000000000000000000000000000000000000081526004016100999190610299565b60405180910390fd5b6100b18161012d60201b60201c565b508173ffffffffffffffffffffffffffffffffffffffff1660808173ffffffffffffffffffffffffffffffffffffffff16815250508060015f6101000a81548173ffffffffffffffffffffffffffffffffffffffff021916908373ffffffffffffffffffffffffffffffffffffffff16021790555050506102b2565b5f5f5f9054906101000a900473ffffffffffffffffffffffffffffffffffffffff169050815f5f6101000a81548173ffffffffffffffffffffffffffffffffffffffff021916908373ffffffffffffffffffffffffffffffffffffffff1602179055508173ffffffffffffffffffffffffffffffffffffffff168173ffffffffffffffffffffffffffffffffffffffff167f8be0079c531659141344cd1fd0a4f28419497f9722a3daafe3b4186f6b6457e060405160405180910390a35050565b5f5ffd5b5f73ffffffffffffffffffffffffffffffffffffffff82169050919050565b5f61021b826101f2565b9050919050565b61022b81610211565b8114610235575f5ffd5b50565b5f8151905061024681610222565b92915050565b5f5f60408385031215610262576102616101ee565b5b5f61026f85828601610238565b925050602061028085828601610238565b9150509250929050565b61029381610211565b82525050565b5f6020820190506102ac5f83018461028a565b92915050565b608051610fdc6102d15f395f81816102eb01526103e00152610fdc5ff3fe608060405234801561000f575f5ffd5b506004361061007b575f3560e01c8063805f213211610059578063805f2132146100c357806380f55605146100df5780638da5cb5b146100fd578063f2fde38b1461011b5761007b565b806318502a6f1461007f5780631e1393f51461009b578063715018a6146100b9575b5f5ffd5b61009960048036038101906100949190610667565b610137565b005b6100a3610202565b6040516100b091906106a1565b60405180910390f35b6100c1610227565b005b6100dd60048036038101906100d8919061071b565b61023a565b005b6100e76103de565b6040516100f491906107f4565b60405180910390f35b610105610402565b60405161011291906106a1565b60405180910390f35b61013560048036038101906101309190610667565b610429565b005b61013f6104ad565b5f60015f9054906101000a900473ffffffffffffffffffffffffffffffffffffffff1690508160015f6101000a81548173ffffffffffffffffffffffffffffffffffffffff021916908373ffffffffffffffffffffffffffffffffffffffff1602179055508173ffffffffffffffffffffffffffffffffffffffff168173ffffffffffffffffffffffffffffffffffffffff167ffbea789d6a139c51ef0f88cde81c3881e90e894fde6c8665726e118af8b13c3560405160405180910390a35050565b60015f9054906101000a900473ffffffffffffffffffffffffffffffffffffffff1681565b61022f6104ad565b6102385f610534565b565b60015f9054906101000a900473ffffffffffffffffffffffffffffffffffffffff1673ffffffffffffffffffffffffffffffffffffffff163373ffffffffffffffffffffffffffffffffffffffff16146102cb57336040517f74c068c20000000000000000000000000000000000000000000000000000000081526004016102c291906106a1565b60405180910390fd5b5f5f5f5f5f86868101906102df9190610b73565b945094509450945094507f000000000000000000000000000000000000000000000000000000000000000073ffffffffffffffffffffffffffffffffffffffff16632e5d2f5086868686866040518663ffffffff1660e01b815260040161034a959493929190610e81565b5f604051808303815f87803b158015610361575f5ffd5b505af1158015610373573d5f5f3e3d5ffd5b505050505f60208a8a9050106103a45789895f9060209261039693929190610eef565b906103a19190610f48565b90505b85817faa44fabb4ba42d7dea864829e89486385cf9d4b926dafeab8a87c76024ed8ddc60405160405180910390a350505050505050505050565b7f000000000000000000000000000000000000000000000000000000000000000081565b5f5f5f9054906101000a900473ffffffffffffffffffffffffffffffffffffffff16905090565b6104316104ad565b5f73ffffffffffffffffffffffffffffffffffffffff168173ffffffffffffffffffffffffffffffffffffffff16036104a1575f6040517f1e4fbdf700000000000000000000000000000000000000000000000000000000815260040161049891906106a1565b60405180910390fd5b6104aa81610534565b50565b6104b56105f5565b73ffffffffffffffffffffffffffffffffffffffff166104d3610402565b73ffffffffffffffffffffffffffffffffffffffff1614610532576104f66105f5565b6040517f118cdaa700000000000000000000000000000000000000000000000000000000815260040161052991906106a1565b60405180910390fd5b565b5f5f5f9054906101000a900473ffffffffffffffffffffffffffffffffffffffff169050815f5f6101000a81548173ffffffffffffffffffffffffffffffffffffffff021916908373ffffffffffffffffffffffffffffffffffffffff1602179055508173ffffffffffffffffffffffffffffffffffffffff168173ffffffffffffffffffffffffffffffffffffffff167f8be0079c531659141344cd1fd0a4f28419497f9722a3daafe3b4186f6b6457e060405160405180910390a35050565b5f33905090565b5f604051905090565b5f5ffd5b5f5ffd5b5f73ffffffffffffffffffffffffffffffffffffffff82169050919050565b5f6106368261060d565b9050919050565b6106468161062c565b8114610650575f5ffd5b50565b5f813590506106618161063d565b92915050565b5f6020828403121561067c5761067b610605565b5b5f61068984828501610653565b91505092915050565b61069b8161062c565b82525050565b5f6020820190506106b45f830184610692565b92915050565b5f5ffd5b5f5ffd5b5f5ffd5b5f5f83601f8401126106db576106da6106ba565b5b8235905067ffffffffffffffff8111156106f8576106f76106be565b5b602083019150836001820283011115610714576107136106c2565b5b9250929050565b5f5f5f5f6040858703121561073357610732610605565b5b5f85013567ffffffffffffffff8111156107505761074f610609565b5b61075c878288016106c6565b9450945050602085013567ffffffffffffffff81111561077f5761077e610609565b5b61078b878288016106c6565b925092505092959194509250565b5f819050919050565b5f6107bc6107b76107b28461060d565b610799565b61060d565b9050919050565b5f6107cd826107a2565b9050919050565b5f6107de826107c3565b9050919050565b6107ee816107d4565b82525050565b5f6020820190506108075f8301846107e5565b92915050565b5f819050919050565b61081f8161080d565b8114610829575f5ffd5b50565b5f8135905061083a81610816565b92915050565b5f601f19601f8301169050919050565b7f4e487b71000000000000000000000000000000000000000000000000000000005f52604160045260245ffd5b61088682610840565b810181811067ffffffffffffffff821117156108a5576108a4610850565b5b80604052505050565b5f6108b76105fc565b90506108c3828261087d565b919050565b5f67ffffffffffffffff8211156108e2576108e1610850565b5b602082029050602081019050919050565b5f610905610900846108c8565b6108ae565b90508083825260208201905060208402830185811115610928576109276106c2565b5b835b81811015610951578061093d8882610653565b84526020840193505060208101905061092a565b5050509392505050565b5f82601f83011261096f5761096e6106ba565b5b813561097f8482602086016108f3565b91505092915050565b5f67ffffffffffffffff8211156109a2576109a1610850565b5b602082029050602081019050919050565b5f6109c56109c084610988565b6108ae565b905080838252602082019050602084028301858111156109e8576109e76106c2565b5b835b81811015610a1157806109fd888261082c565b8452602084019350506020810190506109ea565b5050509392505050565b5f82601f830112610a2f57610a2e6106ba565b5b8135610a3f8482602086016109b3565b91505092915050565b5f67ffffffffffffffff821115610a6257610a61610850565b5b602082029050602081019050919050565b5f60ff82169050919050565b610a8881610a73565b8114610a92575f5ffd5b50565b5f81359050610aa381610a7f565b92915050565b5f610abb610ab684610a48565b6108ae565b90508083825260208201905060208402830185811115610ade57610add6106c2565b5b835b81811015610b075780610af38882610a95565b845260208401935050602081019050610ae0565b5050509392505050565b5f82601f830112610b2557610b246106ba565b5b8135610b35848260208601610aa9565b91505092915050565b5f8115159050919050565b610b5281610b3e565b8114610b5c575f5ffd5b50565b5f81359050610b6d81610b49565b92915050565b5f5f5f5f5f60a08688031215610b8c57610b8b610605565b5b5f610b998882890161082c565b955050602086013567ffffffffffffffff811115610bba57610bb9610609565b5b610bc68882890161095b565b945050604086013567ffffffffffffffff811115610be757610be6610609565b5b610bf388828901610a1b565b935050606086013567ffffffffffffffff811115610c1457610c13610609565b5b610c2088828901610b11565b9250506080610c3188828901610b5f565b9150509295509295909350565b610c478161080d565b82525050565b5f81519050919050565b5f82825260208201905092915050565b5f819050602082019050919050565b610c7f8161062c565b82525050565b5f610c908383610c76565b60208301905092915050565b5f602082019050919050565b5f610cb282610c4d565b610cbc8185610c57565b9350610cc783610c67565b805f5b83811015610cf7578151610cde8882610c85565b9750610ce983610c9c565b925050600181019050610cca565b5085935050505092915050565b5f81519050919050565b5f82825260208201905092915050565b5f819050602082019050919050565b610d368161080d565b82525050565b5f610d478383610d2d565b60208301905092915050565b5f602082019050919050565b5f610d6982610d04565b610d738185610d0e565b9350610d7e83610d1e565b805f5b83811015610dae578151610d958882610d3c565b9750610da083610d53565b925050600181019050610d81565b5085935050505092915050565b5f81519050919050565b5f82825260208201905092915050565b5f819050602082019050919050565b610ded81610a73565b82525050565b5f610dfe8383610de4565b60208301905092915050565b5f602082019050919050565b5f610e2082610dbb565b610e2a8185610dc5565b9350610e3583610dd5565b805f5b83811015610e65578151610e4c8882610df3565b9750610e5783610e0a565b925050600181019050610e38565b5085935050505092915050565b610e7b81610b3e565b82525050565b5f60a082019050610e945f830188610c3e565b8181036020830152610ea68187610ca8565b90508181036040830152610eba8186610d5f565b90508181036060830152610ece8185610e16565b9050610edd6080830184610e72565b9695505050505050565b5f5ffd5b5f5ffd5b5f5f85851115610f0257610f01610ee7565b5b83861115610f1357610f12610eeb565b5b6001850283019150848603905094509492505050565b5f82905092915050565b5f819050919050565b5f82821b905092915050565b5f610f538383610f29565b82610f5e8135610f33565b92506020821015610f9e57610f997fffffffffffffffffffffffffffffffffffffffffffffffffffffffffffffffff83602003600802610f3c565b831692505b50509291505056fea2646970667358221220ea604462c9ef425723ce98ea2f00cea0cb0ff6d8b0829ca0aaab5505818f671364736f6c634300081e0033","linkReferences":{}},"methodIdentifiers":{"keystoneForwarder()":"1e1393f5","market()":"80f55605","onReport(bytes,bytes)":"805f2132","owner()":"8da5cb5b","renounceOwnership()":"715018a6","setKeystoneForwarder(address)":"18502a6f","transferOwnership(address)":"f2fde38b"},"id":4}