{"abi":[{"type":"constructor","inputs":[{"name":"_rewardsDistributor","type":"address","internalType":"address"},{"name":"_keystoneForwarder","type":"address","internalType":"address"}],"stateMutability":"nonpayable"},{"type":"function","name":"keystoneForwarder","inputs":[],"outputs":[{"name":"","type":"address","internalType":"address"}],"stateMutability":"view"},{"type":"function","name":"onReport","inputs":[{"name":"metadata","type":"bytes","internalType":"bytes"},{"name":"report","type":"bytes","internalType":"bytes"}],"outputs":[],"stateMutability":"nonpayable"},{"type":"function","name":"owner","inputs":[],"outputs":[{"name":"","type":"address","internalType":"address"}],"stateMutability":"view"},{"type":"function","name":"renounceOwnership","inputs":[],"outputs":[],"stateMutability":"nonpayable"},{"type":"function","name":"rewardsDistributor","inputs":[],"outputs":[{"name":"","type":"address","internalType":"contract IRewardsDistributor"}],"stateMutability":"view"},{"type":"function","name":"setKeystoneForwarder","inputs":[{"name":"_newForwarder","type":"address","internalType":"address"}],"outputs":[],"stateMutability":"nonpayable"},{"type":"function","name":"transferOwnership","inputs":[{"name":"newOwner","type":"address","internalType":"address"}],"outputs":[],"stateMutability":"nonpayable"},{"type":"event","name":"ForwarderUpdated","inputs":[{"name":"oldForwarder","type":"address","indexed":true,"internalType":"address"},{"name":"newForwarder","type":"address","indexed":true,"internalType":"address"}],"anonymous":false},{"type":"event","name":"OwnershipTransferred","inputs":[{"name":"previousOwner","type":"address","indexed":true,"internalType":"address"},{"name":"newOwner","type":"address","indexed":true,"internalType":"address"}],"anonymous":false},{"type":"event","name":"ReportReceived","inputs":[{"name":"workflowId","type":"bytes32","indexed":true,"internalType":"bytes32"},{"name":"studio","type":"address","indexed":true,"internalType":"address"},{"name":"epoch","type":"uint64","indexed":false,"internalType":"uint64"}],"anonymous":false},{"type":"error","name":"OwnableInvalidOwner","inputs":[{"name":"owner","type":"address","internalType":"address"}]},{"type":"error","name":"OwnableUnauthorizedAccount","inputs":[{"name":"account","type":"address","internalType":"address"}]},{"type":"error","name":"UnauthorizedForwarder","inputs":[{"name":"caller","type":"address","internalType":"address"}]}],"bytecode":{"object":"0x60a060405234801561000f575f5ffd5b506040516113853803806113858339818101604052810190610031919061024c565b335f73ffffffffffffffffffffffffffffffffffffffff168173ffffffffffffffffffffffffffffffffffffffff16036100a2575f6040517f1e4fbdf70000000000000000000000000000000000000000000000000000000081526004016100999190610299565b60405180910390fd5b6100b18161012d60201b60201c565b508173ffffffffffffffffffffffffffffffffffffffff1660808173ffffffffffffffffffffffffffffffffffffffff16815250508060015f6101000a81548173ffffffffffffffffffffffffffffffffffffffff021916908373ffffffffffffffffffffffffffffffffffffffff16021790555050506102b2565b5f5f5f9054906101000a900473ffffffffffffffffffffffffffffffffffffffff169050815f5f6101000a81548173ffffffffffffffffffffffffffffffffffffffff021916908373ffffffffffffffffffffffffffffffffffffffff1602179055508173ffffffffffffffffffffffffffffffffffffffff168173ffffffffffffffffffffffffffffffffffffffff167f8be0079c531659141344cd1fd0a4f28419497f9722a3daafe3b4186f6b6457e060405160405180910390a35050565b5f5ffd5b5f73ffffffffffffffffffffffffffffffffffffffff82169050919050565b5f61021b826101f2565b9050919050565b61022b81610211565b8114610235575f5ffd5b50565b5f8151905061024681610222565b92915050565b5f5f60408385031215610262576102616101ee565b5b5f61026f85828601610238565b925050602061028085828601610238565b9150509250929050565b61029381610211565b82525050565b5f6020820190506102ac5f83018461028a565b92915050565b6080516110b46102d15f395f8181610229015261031201526110b45ff3fe608060405234801561000f575f5ffd5b506004361061007b575f3560e01c8063715018a611610059578063715018a6146100d7578063805f2132146100e15780638da5cb5b146100fd578063f2fde38b1461011b5761007b565b806318502a6f1461007f5780631e1393f51461009b5780633f2a5540146100b9575b5f5ffd5b6100996004803603810190610094919061068e565b610137565b005b6100a3610202565b6040516100b091906106c8565b60405180910390f35b6100c1610227565b6040516100ce919061073c565b60405180910390f35b6100df61024b565b005b6100fb60048036038101906100f691906107b6565b61025e565b005b610105610429565b60405161011291906106c8565b60405180910390f35b6101356004803603810190610130919061068e565b610450565b005b61013f6104d4565b5f60015f9054906101000a900473ffffffffffffffffffffffffffffffffffffffff1690508160015f6101000a81548173ffffffffffffffffffffffffffffffffffffffff021916908373ffffffffffffffffffffffffffffffffffffffff1602179055508173ffffffffffffffffffffffffffffffffffffffff168173ffffffffffffffffffffffffffffffffffffffff167ffbea789d6a139c51ef0f88cde81c3881e90e894fde6c8665726e118af8b13c3560405160405180910390a35050565b60015f9054906101000a900473ffffffffffffffffffffffffffffffffffffffff1681565b7f000000000000000000000000000000000000000000000000000000000000000081565b6102536104d4565b61025c5f61055b565b565b60015f9054906101000a900473ffffffffffffffffffffffffffffffffffffffff1673ffffffffffffffffffffffffffffffffffffffff163373ffffffffffffffffffffffffffffffffffffffff16146102ef57336040517f74c068c20000000000000000000000000000000000000000000000000000000081526004016102e691906106c8565b60405180910390fd5b5f5f5f5f5f5f87878101906103049190610c12565b9550955095509550955095507f000000000000000000000000000000000000000000000000000000000000000073ffffffffffffffffffffffffffffffffffffffff1663ab5efded8787878787876040518763ffffffff1660e01b815260040161037396959493929190610f32565b5f604051808303815f87803b15801561038a575f5ffd5b505af115801561039c573d5f5f3e3d5ffd5b505050505f60208b8b9050106103cd578a8a5f906020926103bf93929190610fae565b906103ca9190611007565b90505b8673ffffffffffffffffffffffffffffffffffffffff16817fe6be06ea2a0916c5bcd37e96aafd14874d9185cdc4bd614c44dd35985acc8863886040516104149190611065565b60405180910390a35050505050505050505050565b5f5f5f9054906101000a900473ffffffffffffffffffffffffffffffffffffffff16905090565b6104586104d4565b5f73ffffffffffffffffffffffffffffffffffffffff168173ffffffffffffffffffffffffffffffffffffffff16036104c8575f6040517f1e4fbdf70000000000000000000000000000000000000000000000000000000081526004016104bf91906106c8565b60405180910390fd5b6104d18161055b565b50565b6104dc61061c565b73ffffffffffffffffffffffffffffffffffffffff166104fa610429565b73ffffffffffffffffffffffffffffffffffffffff16146105595761051d61061c565b6040517f118cdaa700000000000000000000000000000000000000000000000000000000815260040161055091906106c8565b60405180910390fd5b565b5f5f5f9054906101000a900473ffffffffffffffffffffffffffffffffffffffff169050815f5f6101000a81548173ffffffffffffffffffffffffffffffffffffffff021916908373ffffffffffffffffffffffffffffffffffffffff1602179055508173ffffffffffffffffffffffffffffffffffffffff168173ffffffffffffffffffffffffffffffffffffffff167f8be0079c531659141344cd1fd0a4f28419497f9722a3daafe3b4186f6b6457e060405160405180910390a35050565b5f33905090565b5f604051905090565b5f5ffd5b5f5ffd5b5f73ffffffffffffffffffffffffffffffffffffffff82169050919050565b5f61065d82610634565b9050919050565b61066d81610653565b8114610677575f5ffd5b50565b5f8135905061068881610664565b92915050565b5f602082840312156106a3576106a261062c565b5b5f6106b08482850161067a565b91505092915050565b6106c281610653565b82525050565b5f6020820190506106db5f8301846106b9565b92915050565b5f819050919050565b5f6107046106ff6106fa84610634565b6106e1565b610634565b9050919050565b5f610715826106ea565b9050919050565b5f6107268261070b565b9050919050565b6107368161071c565b82525050565b5f60208201905061074f5f83018461072d565b92915050565b5f5ffd5b5f5ffd5b5f5ffd5b5f5f83601f84011261077657610775610755565b5b8235905067ffffffffffffffff81111561079357610792610759565b5b6020830191508360018202830111156107af576107ae61075d565b5b9250929050565b5f5f5f5f604085870312156107ce576107cd61062c565b5b5f85013567ffffffffffffffff8111156107eb576107ea610630565b5b6107f787828801610761565b9450945050602085013567ffffffffffffffff81111561081a57610819610630565b5b61082687828801610761565b925092505092959194509250565b5f61083e82610634565b9050919050565b61084e81610834565b8114610858575f5ffd5b50565b5f8135905061086981610845565b92915050565b5f67ffffffffffffffff82169050919050565b61088b8161086f565b8114610895575f5ffd5b50565b5f813590506108a681610882565b92915050565b5f601f19601f8301169050919050565b7f4e487b71000000000000000000000000000000000000000000000000000000005f52604160045260245ffd5b6108f2826108ac565b810181811067ffffffffffffffff82111715610911576109106108bc565b5b80604052505050565b5f610923610623565b905061092f82826108e9565b919050565b5f67ffffffffffffffff82111561094e5761094d6108bc565b5b602082029050602081019050919050565b5f61097161096c84610934565b61091a565b905080838252602082019050602084028301858111156109945761099361075d565b5b835b818110156109bd57806109a9888261067a565b845260208401935050602081019050610996565b5050509392505050565b5f82601f8301126109db576109da610755565b5b81356109eb84826020860161095f565b91505092915050565b5f67ffffffffffffffff821115610a0e57610a0d6108bc565b5b602082029050602081019050919050565b5f819050919050565b610a3181610a1f565b8114610a3b575f5ffd5b50565b5f81359050610a4c81610a28565b92915050565b5f610a64610a5f846109f4565b61091a565b90508083825260208201905060208402830185811115610a8757610a8661075d565b5b835b81811015610ab05780610a9c8882610a3e565b845260208401935050602081019050610a89565b5050509392505050565b5f82601f830112610ace57610acd610755565b5b8135610ade848260208601610a52565b91505092915050565b5f67ffffffffffffffff821115610b0157610b006108bc565b5b602082029050602081019050919050565b5f60ff82169050919050565b610b2781610b12565b8114610b31575f5ffd5b50565b5f81359050610b4281610b1e565b92915050565b5f610b5a610b5584610ae7565b61091a565b90508083825260208201905060208402830185811115610b7d57610b7c61075d565b5b835b81811015610ba65780610b928882610b34565b845260208401935050602081019050610b7f565b5050509392505050565b5f82601f830112610bc457610bc3610755565b5b8135610bd4848260208601610b48565b91505092915050565b5f8115159050919050565b610bf181610bdd565b8114610bfb575f5ffd5b50565b5f81359050610c0c81610be8565b92915050565b5f5f5f5f5f5f60c08789031215610c2c57610c2b61062c565b5b5f610c3989828a0161085b565b9650506020610c4a89828a01610898565b955050604087013567ffffffffffffffff811115610c6b57610c6a610630565b5b610c7789828a016109c7565b945050606087013567ffffffffffffffff811115610c9857610c97610630565b5b610ca489828a01610aba565b935050608087013567ffffffffffffffff811115610cc557610cc4610630565b5b610cd189828a01610bb0565b92505060a0610ce289828a01610bfe565b9150509295509295509295565b610cf88161086f565b82525050565b5f81519050919050565b5f82825260208201905092915050565b5f819050602082019050919050565b610d3081610653565b82525050565b5f610d418383610d27565b60208301905092915050565b5f602082019050919050565b5f610d6382610cfe565b610d6d8185610d08565b9350610d7883610d18565b805f5b83811015610da8578151610d8f8882610d36565b9750610d9a83610d4d565b925050600181019050610d7b565b5085935050505092915050565b5f81519050919050565b5f82825260208201905092915050565b5f819050602082019050919050565b610de781610a1f565b82525050565b5f610df88383610dde565b60208301905092915050565b5f602082019050919050565b5f610e1a82610db5565b610e248185610dbf565b9350610e2f83610dcf565b805f5b83811015610e5f578151610e468882610ded565b9750610e5183610e04565b925050600181019050610e32565b5085935050505092915050565b5f81519050919050565b5f82825260208201905092915050565b5f819050602082019050919050565b610e9e81610b12565b82525050565b5f610eaf8383610e95565b60208301905092915050565b5f602082019050919050565b5f610ed182610e6c565b610edb8185610e76565b9350610ee683610e86565b805f5b83811015610f16578151610efd8882610ea4565b9750610f0883610ebb565b925050600181019050610ee9565b5085935050505092915050565b610f2c81610bdd565b82525050565b5f60c082019050610f455f8301896106b9565b610f526020830188610cef565b8181036040830152610f648187610d59565b90508181036060830152610f788186610e10565b90508181036080830152610f8c8185610ec7565b9050610f9b60a0830184610f23565b979650505050505050565b5f5ffd5b5f5ffd5b5f5f85851115610fc157610fc0610fa6565b5b83861115610fd257610fd1610faa565b5b6001850283019150848603905094509492505050565b5f82905092915050565b5f819050919050565b5f82821b905092915050565b5f6110128383610fe8565b8261101d8135610ff2565b9250602082101561105d576110587fffffffffffffffffffffffffffffffffffffffffffffffffffffffffffffffff83602003600802610ffb565b831692505b505092915050565b5f6020820190506110785f830184610cef565b9291505056fea2646970667358221220cbe5ac56dcd80cd7cb0ebfa5d8cab096546494193f9336d84c0fc811208e4c5664736f6c634300081e0033","linkReferences":{}},"methodIdentifiers":{"keystoneForwarder()":"1e1393f5","onReport(bytes,bytes)":"805f2132","owner()":"8da5cb5b","renounceOwnership()":"715018a6","rewardsDistributor()":"3f2a5540","setKeystoneForwarder(address)":"18502a6f","transferOwnership(address)":"f2fde38b"},"id":23}