{"abi":[{"type":"constructor","inputs":[{"name":"_market","type":"address","internalType":"address"},{"name":"_forwarder","type":"address","internalType":"address"}],"stateMutability":"nonpayable"},{"type":"function","name":"allowWorkflow","inputs":[{"name":"workflowId","type":"bytes32","internalType":"bytes32"},{"name":"donId","type":"bytes32","internalType":"bytes32"},{"name":"name","type":"string","internalType":"string"}],"outputs":[],"stateMutability":"nonpayable"},{"type":"function","name":"disallowWorkflow","inputs":[{"name":"workflowId","type":"bytes32","internalType":"bytes32"},{"name":"donId","type":"bytes32","internalType":"bytes32"}],"outputs":[],"stateMutability":"nonpayable"},{"type":"function","name":"enforceWorkflowIdentity","inputs":[],"outputs":[{"name":"","type":"bool","internalType":"bool"}],"stateMutability":"view"},{"type":"function","name":"forwarder","inputs":[],"outputs":[{"name":"","type":"address","internalType":"address"}],"stateMutability":"view"},{"type":"function","name":"isWorkflowAllowed","inputs":[{"name":"workflowId","type":"bytes32","internalType":"bytes32"},{"name":"donId","type":"bytes32","internalType":"bytes32"}],"outputs":[{"name":"isAllowed","type":"bool","internalType":"bool"},{"name":"name","type":"string","internalType":"string"}],"stateMutability":"view"},{"type":"function","name":"market","inputs":[],"outputs":[{"name":"","type":"address","internalType":"contract ICREsolverMarket"}],"stateMutability":"view"},{"type":"function","name":"onReport","inputs":[{"name":"metadata","type":"bytes","internalType":"bytes"},{"name":"report","type":"bytes","internalType":"bytes"}],"outputs":[],"stateMutability":"nonpayable"},{"type":"function","name":"owner","inputs":[],"outputs":[{"name":"","type":"address","internalType":"address"}],"stateMutability":"view"},{"type":"function","name":"renounceOwnership","inputs":[],"outputs":[],"stateMutability":"nonpayable"},{"type":"function","name":"setEnforceWorkflowIdentity","inputs":[{"name":"enforce","type":"bool","internalType":"bool"}],"outputs":[],"stateMutability":"nonpayable"},{"type":"function","name":"setForwarder","inputs":[{"name":"_newForwarder","type":"address","internalType":"address"}],"outputs":[],"stateMutability":"nonpayable"},{"type":"function","name":"supportsInterface","inputs":[{"name":"interfaceId","type":"bytes4","internalType":"bytes4"}],"outputs":[{"name":"","type":"bool","internalType":"bool"}],"stateMutability":"pure"},{"type":"function","name":"transferOwnership","inputs":[{"name":"newOwner","type":"address","internalType":"address"}],"outputs":[],"stateMutability":"nonpayable"},{"type":"event","name":"ForwarderUpdated","inputs":[{"name":"oldForwarder","type":"address","indexed":true,"internalType":"address"},{"name":"newForwarder","type":"address","indexed":true,"internalType":"address"}],"anonymous":false},{"type":"event","name":"OwnershipTransferred","inputs":[{"name":"previousOwner","type":"address","indexed":true,"internalType":"address"},{"name":"newOwner","type":"address","indexed":true,"internalType":"address"}],"anonymous":false},{"type":"event","name":"ReportProcessed","inputs":[{"name":"workflowId","type":"bytes32","indexed":true,"internalType":"bytes32"},{"name":"donId","type":"bytes32","indexed":true,"internalType":"bytes32"}],"anonymous":false},{"type":"event","name":"ReportReceived","inputs":[{"name":"workflowId","type":"bytes32","indexed":true,"internalType":"bytes32"},{"name":"marketId","type":"uint256","indexed":true,"internalType":"uint256"}],"anonymous":false},{"type":"event","name":"WorkflowAllowed","inputs":[{"name":"workflowId","type":"bytes32","indexed":true,"internalType":"bytes32"},{"name":"donId","type":"bytes32","indexed":true,"internalType":"bytes32"},{"name":"name","type":"string","indexed":false,"internalType":"string"}],"anonymous":false},{"type":"event","name":"WorkflowDisallowed","inputs":[{"name":"workflowId","type":"bytes32","indexed":true,"internalType":"bytes32"},{"name":"donId","type":"bytes32","indexed":true,"internalType":"bytes32"}],"anonymous":false},{"type":"error","name":"MetadataTooShort","inputs":[{"name":"length","type":"uint256","internalType":"uint256"}]},{"type":"error","name":"OwnableInvalidOwner","inputs":[{"name":"owner","type":"address","internalType":"address"}]},{"type":"error","name":"OwnableUnauthorizedAccount","inputs":[{"name":"account","type":"address","internalType":"address"}]},{"type":"error","name":"UnauthorizedForwarder","inputs":[{"name":"caller","type":"address","internalType":"address"}]},{"type":"error","name":"UnauthorizedWorkflow","inputs":[{"name":"workflowId","type":"bytes32","internalType":"bytes32"},{"name":"donId","type":"bytes32","internalType":"bytes32"}]}],"bytecode":{"object":"0x60a060405234801561000f575f5ffd5b50604051611f8a380380611f8a8339818101604052810190610031919061024e565b80335f73ffffffffffffffffffffffffffffffffffffffff168173ffffffffffffffffffffffffffffffffffffffff16036100a3575f6040517f1e4fbdf700000000000000000000000000000000000000000000000000000000815260040161009a919061029b565b60405180910390fd5b6100b28161012f60201b60201c565b508060015f6101000a81548173ffffffffffffffffffffffffffffffffffffffff021916908373ffffffffffffffffffffffffffffffffffffffff160217905550508173ffffffffffffffffffffffffffffffffffffffff1660808173ffffffffffffffffffffffffffffffffffffffff168152505050506102b4565b5f5f5f9054906101000a900473ffffffffffffffffffffffffffffffffffffffff169050815f5f6101000a81548173ffffffffffffffffffffffffffffffffffffffff021916908373ffffffffffffffffffffffffffffffffffffffff1602179055508173ffffffffffffffffffffffffffffffffffffffff168173ffffffffffffffffffffffffffffffffffffffff167f8be0079c531659141344cd1fd0a4f28419497f9722a3daafe3b4186f6b6457e060405160405180910390a35050565b5f5ffd5b5f73ffffffffffffffffffffffffffffffffffffffff82169050919050565b5f61021d826101f4565b9050919050565b61022d81610213565b8114610237575f5ffd5b50565b5f8151905061024881610224565b92915050565b5f5f60408385031215610264576102636101f0565b5b5f6102718582860161023a565b92505060206102828582860161023a565b9150509250929050565b61029581610213565b82525050565b5f6020820190506102ae5f83018461028c565b92915050565b608051611cb76102d35f395f81816105e90152610b680152611cb75ff3fe608060405234801561000f575f5ffd5b50600436106100cd575f3560e01c806380f556051161008a578063b9998a2411610064578063b9998a24146101d5578063f0e0de99146101f1578063f2fde38b14610222578063f645d4f91461023e576100cd565b806380f556051461017d5780638da5cb5b1461019b578063b75e925d146101b9576100cd565b806301ffc9a7146100d15780632ffac38814610101578063531fd5fd1461011d578063649866081461013b578063715018a614610157578063805f213214610161575b5f5ffd5b6100eb60048036038101906100e69190610d10565b61025c565b6040516100f89190610d55565b60405180910390f35b61011b60048036038101906101169190610e02565b61032d565b005b610125610426565b6040516101329190610d55565b60405180910390f35b61015560048036038101906101509190610e9d565b610438565b005b61015f61045c565b005b61017b60048036038101906101769190610f1d565b61046f565b005b6101856105e7565b6040516101929190611015565b60405180910390f35b6101a361060b565b6040516101b0919061104e565b60405180910390f35b6101d360048036038101906101ce9190611067565b610632565b005b6101ef60048036038101906101ea91906110cf565b6106af565b005b61020b60048036038101906102069190611067565b61077a565b60405161021992919061116a565b60405180910390f35b61023c600480360381019061023791906110cf565b610849565b005b6102466108cd565b604051610253919061104e565b60405180910390f35b5f7f805f2132000000000000000000000000000000000000000000000000000000007bffffffffffffffffffffffffffffffffffffffffffffffffffffffff1916827bffffffffffffffffffffffffffffffffffffffffffffffffffffffff1916148061032657507f01ffc9a7000000000000000000000000000000000000000000000000000000007bffffffffffffffffffffffffffffffffffffffffffffffffffffffff1916827bffffffffffffffffffffffffffffffffffffffffffffffffffffffff1916145b9050919050565b6103356108f2565b5f6103408585610979565b9050604051806040016040528060011515815260200184848080601f0160208091040260200160405190810160405280939291908181526020018383808284375f81840152601f19601f8201169050808301925050505050505081525060025f8381526020019081526020015f205f820151815f015f6101000a81548160ff02191690831515021790555060208201518160010190816103e091906113c2565b5090505083857f31dc61852c7ebca0092dabdda18819a2e340298616d1dbe36d8f3237bb3a1d7285856040516104179291906114cb565b60405180910390a35050505050565b60035f9054906101000a900460ff1681565b6104406108f2565b8060035f6101000a81548160ff02191690831515021790555050565b6104646108f2565b61046d5f6109ab565b565b60015f9054906101000a900473ffffffffffffffffffffffffffffffffffffffff1673ffffffffffffffffffffffffffffffffffffffff163373ffffffffffffffffffffffffffffffffffffffff161461050057336040517f74c068c20000000000000000000000000000000000000000000000000000000081526004016104f7919061104e565b60405180910390fd5b5f61050b8585610a6c565b905060035f9054906101000a900460ff16156105a1575f610533825f01518360400151610979565b905060025f8281526020019081526020015f205f015f9054906101000a900460ff1661059f57815f015182604001516040517f3a8571fb0000000000000000000000000000000000000000000000000000000081526004016105969291906114fc565b60405180910390fd5b505b6105ab8383610b48565b8060400151815f01517fec5bc4816544e9ac753bec4fddbacb1ba4ee202266deb2b56e553dfca380396560405160405180910390a35050505050565b7f000000000000000000000000000000000000000000000000000000000000000081565b5f5f5f9054906101000a900473ffffffffffffffffffffffffffffffffffffffff16905090565b61063a6108f2565b5f6106458383610979565b905060025f8281526020019081526020015f205f5f82015f6101000a81549060ff0219169055600182015f61067a9190610c34565b505081837f280684454aad62645bcbe7517a358d455e30c6ab201c6d03b56d01b67b73c4f460405160405180910390a3505050565b6106b76108f2565b5f60015f9054906101000a900473ffffffffffffffffffffffffffffffffffffffff1690508160015f6101000a81548173ffffffffffffffffffffffffffffffffffffffff021916908373ffffffffffffffffffffffffffffffffffffffff1602179055508173ffffffffffffffffffffffffffffffffffffffff168173ffffffffffffffffffffffffffffffffffffffff167ffbea789d6a139c51ef0f88cde81c3881e90e894fde6c8665726e118af8b13c3560405160405180910390a35050565b5f60605f6107888585610979565b90505f60025f8381526020019081526020015f209050805f015f9054906101000a900460ff16816001018080546107be906111f2565b80601f01602080910402602001604051908101604052809291908181526020018280546107ea906111f2565b80156108355780601f1061080c57610100808354040283529160200191610835565b820191905f5260205f20905b81548152906001019060200180831161081857829003601f168201915b505050505090509350935050509250929050565b6108516108f2565b5f73ffffffffffffffffffffffffffffffffffffffff168173ffffffffffffffffffffffffffffffffffffffff16036108c1575f6040517f1e4fbdf70000000000000000000000000000000000000000000000000000000081526004016108b8919061104e565b60405180910390fd5b6108ca816109ab565b50565b60015f9054906101000a900473ffffffffffffffffffffffffffffffffffffffff1681565b6108fa610c2d565b73ffffffffffffffffffffffffffffffffffffffff1661091861060b565b73ffffffffffffffffffffffffffffffffffffffff16146109775761093b610c2d565b6040517f118cdaa700000000000000000000000000000000000000000000000000000000815260040161096e919061104e565b60405180910390fd5b565b5f828260405160200161098d929190611543565b60405160208183030381529060405280519060200120905092915050565b5f5f5f9054906101000a900473ffffffffffffffffffffffffffffffffffffffff169050815f5f6101000a81548173ffffffffffffffffffffffffffffffffffffffff021916908373ffffffffffffffffffffffffffffffffffffffff1602179055508173ffffffffffffffffffffffffffffffffffffffff168173ffffffffffffffffffffffffffffffffffffffff167f8be0079c531659141344cd1fd0a4f28419497f9722a3daafe3b4186f6b6457e060405160405180910390a35050565b610a74610c71565b6040838390501015610ac057828290506040517f0f35db25000000000000000000000000000000000000000000000000000000008152600401610ab7919061157d565b60405180910390fd5b82825f90602092610ad39392919061159e565b90610ade91906115e2565b815f0181815250508282602090604092610afa9392919061159e565b90610b0591906115e2565b81604001818152505060608383905010610b42578282604090606092610b2d9392919061159e565b90610b3891906115e2565b8160200181815250505b92915050565b5f5f5f5f5f8686810190610b5c919061192b565b945094509450945094507f000000000000000000000000000000000000000000000000000000000000000073ffffffffffffffffffffffffffffffffffffffff16632e5d2f5086868686866040518663ffffffff1660e01b8152600401610bc7959493929190611c1b565b5f604051808303815f87803b158015610bde575f5ffd5b505af1158015610bf0573d5f5f3e3d5ffd5b50505050845f5f1b7faa44fabb4ba42d7dea864829e89486385cf9d4b926dafeab8a87c76024ed8ddc60405160405180910390a350505050505050565b5f33905090565b508054610c40906111f2565b5f825580601f10610c515750610c6e565b601f0160209004905f5260205f2090810190610c6d9190610c8f565b5b50565b60405180606001604052805f81526020015f81526020015f81525090565b5b80821115610ca6575f815f905550600101610c90565b5090565b5f604051905090565b5f5ffd5b5f5ffd5b5f7fffffffff0000000000000000000000000000000000000000000000000000000082169050919050565b610cef81610cbb565b8114610cf9575f5ffd5b50565b5f81359050610d0a81610ce6565b92915050565b5f60208284031215610d2557610d24610cb3565b5b5f610d3284828501610cfc565b91505092915050565b5f8115159050919050565b610d4f81610d3b565b82525050565b5f602082019050610d685f830184610d46565b92915050565b5f819050919050565b610d8081610d6e565b8114610d8a575f5ffd5b50565b5f81359050610d9b81610d77565b92915050565b5f5ffd5b5f5ffd5b5f5ffd5b5f5f83601f840112610dc257610dc1610da1565b5b8235905067ffffffffffffffff811115610ddf57610dde610da5565b5b602083019150836001820283011115610dfb57610dfa610da9565b5b9250929050565b5f5f5f5f60608587031215610e1a57610e19610cb3565b5b5f610e2787828801610d8d565b9450506020610e3887828801610d8d565b935050604085013567ffffffffffffffff811115610e5957610e58610cb7565b5b610e6587828801610dad565b925092505092959194509250565b610e7c81610d3b565b8114610e86575f5ffd5b50565b5f81359050610e9781610e73565b92915050565b5f60208284031215610eb257610eb1610cb3565b5b5f610ebf84828501610e89565b91505092915050565b5f5f83601f840112610edd57610edc610da1565b5b8235905067ffffffffffffffff811115610efa57610ef9610da5565b5b602083019150836001820283011115610f1657610f15610da9565b5b9250929050565b5f5f5f5f60408587031215610f3557610f34610cb3565b5b5f85013567ffffffffffffffff811115610f5257610f51610cb7565b5b610f5e87828801610ec8565b9450945050602085013567ffffffffffffffff811115610f8157610f80610cb7565b5b610f8d87828801610ec8565b925092505092959194509250565b5f73ffffffffffffffffffffffffffffffffffffffff82169050919050565b5f819050919050565b5f610fdd610fd8610fd384610f9b565b610fba565b610f9b565b9050919050565b5f610fee82610fc3565b9050919050565b5f610fff82610fe4565b9050919050565b61100f81610ff5565b82525050565b5f6020820190506110285f830184611006565b92915050565b5f61103882610f9b565b9050919050565b6110488161102e565b82525050565b5f6020820190506110615f83018461103f565b92915050565b5f5f6040838503121561107d5761107c610cb3565b5b5f61108a85828601610d8d565b925050602061109b85828601610d8d565b9150509250929050565b6110ae8161102e565b81146110b8575f5ffd5b50565b5f813590506110c9816110a5565b92915050565b5f602082840312156110e4576110e3610cb3565b5b5f6110f1848285016110bb565b91505092915050565b5f81519050919050565b5f82825260208201905092915050565b8281835e5f83830152505050565b5f601f19601f8301169050919050565b5f61113c826110fa565b6111468185611104565b9350611156818560208601611114565b61115f81611122565b840191505092915050565b5f60408201905061117d5f830185610d46565b818103602083015261118f8184611132565b90509392505050565b7f4e487b71000000000000000000000000000000000000000000000000000000005f52604160045260245ffd5b7f4e487b71000000000000000000000000000000000000000000000000000000005f52602260045260245ffd5b5f600282049050600182168061120957607f821691505b60208210810361121c5761121b6111c5565b5b50919050565b5f819050815f5260205f209050919050565b5f6020601f8301049050919050565b5f82821b905092915050565b5f6008830261127e7fffffffffffffffffffffffffffffffffffffffffffffffffffffffffffffffff82611243565b6112888683611243565b95508019841693508086168417925050509392505050565b5f819050919050565b5f6112c36112be6112b9846112a0565b610fba565b6112a0565b9050919050565b5f819050919050565b6112dc836112a9565b6112f06112e8826112ca565b84845461124f565b825550505050565b5f5f905090565b6113076112f8565b6113128184846112d3565b505050565b5b818110156113355761132a5f826112ff565b600181019050611318565b5050565b601f82111561137a5761134b81611222565b61135484611234565b81016020851015611363578190505b61137761136f85611234565b830182611317565b50505b505050565b5f82821c905092915050565b5f61139a5f198460080261137f565b1980831691505092915050565b5f6113b2838361138b565b9150826002028217905092915050565b6113cb826110fa565b67ffffffffffffffff8111156113e4576113e3611198565b5b6113ee82546111f2565b6113f9828285611339565b5f60209050601f83116001811461142a575f8415611418578287015190505b61142285826113a7565b865550611489565b601f19841661143886611222565b5f5b8281101561145f5784890151825560018201915060208501945060208101905061143a565b8683101561147c5784890151611478601f89168261138b565b8355505b6001600288020188555050505b505050505050565b828183375f83830152505050565b5f6114aa8385611104565b93506114b7838584611491565b6114c083611122565b840190509392505050565b5f6020820190508181035f8301526114e481848661149f565b90509392505050565b6114f681610d6e565b82525050565b5f60408201905061150f5f8301856114ed565b61151c60208301846114ed565b9392505050565b5f819050919050565b61153d61153882610d6e565b611523565b82525050565b5f61154e828561152c565b60208201915061155e828461152c565b6020820191508190509392505050565b611577816112a0565b82525050565b5f6020820190506115905f83018461156e565b92915050565b5f5ffd5b5f5ffd5b5f5f858511156115b1576115b0611596565b5b838611156115c2576115c161159a565b5b6001850283019150848603905094509492505050565b5f82905092915050565b5f6115ed83836115d8565b826115f88135610d6e565b92506020821015611638576116337fffffffffffffffffffffffffffffffffffffffffffffffffffffffffffffffff83602003600802611243565b831692505b505092915050565b611649816112a0565b8114611653575f5ffd5b50565b5f8135905061166481611640565b92915050565b61167382611122565b810181811067ffffffffffffffff8211171561169257611691611198565b5b80604052505050565b5f6116a4610caa565b90506116b0828261166a565b919050565b5f67ffffffffffffffff8211156116cf576116ce611198565b5b602082029050602081019050919050565b5f6116f26116ed846116b5565b61169b565b9050808382526020820190506020840283018581111561171557611714610da9565b5b835b8181101561173e578061172a88826110bb565b845260208401935050602081019050611717565b5050509392505050565b5f82601f83011261175c5761175b610da1565b5b813561176c8482602086016116e0565b91505092915050565b5f67ffffffffffffffff82111561178f5761178e611198565b5b602082029050602081019050919050565b5f6117b26117ad84611775565b61169b565b905080838252602082019050602084028301858111156117d5576117d4610da9565b5b835b818110156117fe57806117ea8882611656565b8452602084019350506020810190506117d7565b5050509392505050565b5f82601f83011261181c5761181b610da1565b5b813561182c8482602086016117a0565b91505092915050565b5f67ffffffffffffffff82111561184f5761184e611198565b5b602082029050602081019050919050565b5f60ff82169050919050565b61187581611860565b811461187f575f5ffd5b50565b5f813590506118908161186c565b92915050565b5f6118a86118a384611835565b61169b565b905080838252602082019050602084028301858111156118cb576118ca610da9565b5b835b818110156118f457806118e08882611882565b8452602084019350506020810190506118cd565b5050509392505050565b5f82601f83011261191257611911610da1565b5b8135611922848260208601611896565b91505092915050565b5f5f5f5f5f60a0868803121561194457611943610cb3565b5b5f61195188828901611656565b955050602086013567ffffffffffffffff81111561197257611971610cb7565b5b61197e88828901611748565b945050604086013567ffffffffffffffff81111561199f5761199e610cb7565b5b6119ab88828901611808565b935050606086013567ffffffffffffffff8111156119cc576119cb610cb7565b5b6119d8888289016118fe565b92505060806119e988828901610e89565b9150509295509295909350565b5f81519050919050565b5f82825260208201905092915050565b5f819050602082019050919050565b611a288161102e565b82525050565b5f611a398383611a1f565b60208301905092915050565b5f602082019050919050565b5f611a5b826119f6565b611a658185611a00565b9350611a7083611a10565b805f5b83811015611aa0578151611a878882611a2e565b9750611a9283611a45565b925050600181019050611a73565b5085935050505092915050565b5f81519050919050565b5f82825260208201905092915050565b5f819050602082019050919050565b611adf816112a0565b82525050565b5f611af08383611ad6565b60208301905092915050565b5f602082019050919050565b5f611b1282611aad565b611b1c8185611ab7565b9350611b2783611ac7565b805f5b83811015611b57578151611b3e8882611ae5565b9750611b4983611afc565b925050600181019050611b2a565b5085935050505092915050565b5f81519050919050565b5f82825260208201905092915050565b5f819050602082019050919050565b611b9681611860565b82525050565b5f611ba78383611b8d565b60208301905092915050565b5f602082019050919050565b5f611bc982611b64565b611bd38185611b6e565b9350611bde83611b7e565b805f5b83811015611c0e578151611bf58882611b9c565b9750611c0083611bb3565b925050600181019050611be1565b5085935050505092915050565b5f60a082019050611c2e5f83018861156e565b8181036020830152611c408187611a51565b90508181036040830152611c548186611b08565b90508181036060830152611c688185611bbf565b9050611c776080830184610d46565b969550505050505056fea264697066735822122003313ac6bcfad339cdfa92870a8e761ae28fcb25d72bf5ad6bc82362169c886964736f6c634300081e0033","linkReferences":{}},"methodIdentifiers":{"allowWorkflow(bytes32,bytes32,string)":"2ffac388","disallowWorkflow(bytes32,bytes32)":"b75e925d","enforceWorkflowIdentity()":"531fd5fd","forwarder()":"f645d4f9","isWorkflowAllowed(bytes32,bytes32)":"f0e0de99","market()":"80f55605","onReport(bytes,bytes)":"805f2132","owner()":"8da5cb5b","renounceOwnership()":"715018a6","setEnforceWorkflowIdentity(bool)":"64986608","setForwarder(address)":"b9998a24","supportsInterface(bytes4)":"01ffc9a7","transferOwnership(address)":"f2fde38b"},"id":26}