{"abi":[{"type":"constructor","inputs":[{"name":"_identityRegistry","type":"address","internalType":"address"},{"name":"_reputationRegistry","type":"address","internalType":"address"}],"stateMutability":"nonpayable"},{"type":"function","name":"MAX_WORKERS","inputs":[],"outputs":[{"name":"","type":"uint256","internalType":"uint256"}],"stateMutability":"view"},{"type":"function","name":"authorizedResolvers","inputs":[{"name":"","type":"address","internalType":"address"}],"outputs":[{"name":"","type":"bool","internalType":"bool"}],"stateMutability":"view"},{"type":"function","name":"balances","inputs":[{"name":"","type":"address","internalType":"address"}],"outputs":[{"name":"","type":"uint256","internalType":"uint256"}],"stateMutability":"view"},{"type":"function","name":"createMarket","inputs":[{"name":"question","type":"string","internalType":"string"},{"name":"duration","type":"uint256","internalType":"uint256"}],"outputs":[{"name":"marketId","type":"uint256","internalType":"uint256"}],"stateMutability":"payable"},{"type":"function","name":"getMarket","inputs":[{"name":"marketId","type":"uint256","internalType":"uint256"}],"outputs":[{"name":"","type":"tuple","internalType":"struct CREsolverMarket.Market","components":[{"name":"question","type":"string","internalType":"string"},{"name":"rewardPool","type":"uint256","internalType":"uint256"},{"name":"deadline","type":"uint256","internalType":"uint256"},{"name":"creator","type":"address","internalType":"address"},{"name":"resolved","type":"bool","internalType":"bool"}]}],"stateMutability":"view"},{"type":"function","name":"getMarketWorkers","inputs":[{"name":"marketId","type":"uint256","internalType":"uint256"}],"outputs":[{"name":"","type":"address[]","internalType":"address[]"}],"stateMutability":"view"},{"type":"function","name":"getReputation","inputs":[{"name":"worker","type":"address","internalType":"address"}],"outputs":[{"name":"resQuality","type":"uint256","internalType":"uint256"},{"name":"srcQuality","type":"uint256","internalType":"uint256"},{"name":"analysisDepth","type":"uint256","internalType":"uint256"},{"name":"count","type":"uint256","internalType":"uint256"}],"stateMutability":"view"},{"type":"function","name":"getScoringCriteria","inputs":[],"outputs":[{"name":"names","type":"string[8]","internalType":"string[8]"},{"name":"weights","type":"uint256[8]","internalType":"uint256[8]"}],"stateMutability":"pure"},{"type":"function","name":"identityRegistry","inputs":[],"outputs":[{"name":"","type":"address","internalType":"contract IERC8004IdentityV1"}],"stateMutability":"view"},{"type":"function","name":"isMarketActive","inputs":[{"name":"marketId","type":"uint256","internalType":"uint256"}],"outputs":[{"name":"","type":"bool","internalType":"bool"}],"stateMutability":"view"},{"type":"function","name":"joinMarket","inputs":[{"name":"marketId","type":"uint256","internalType":"uint256"},{"name":"agentId","type":"uint256","internalType":"uint256"}],"outputs":[],"stateMutability":"payable"},{"type":"function","name":"marketCount","inputs":[],"outputs":[{"name":"","type":"uint256","internalType":"uint256"}],"stateMutability":"view"},{"type":"function","name":"markets","inputs":[{"name":"","type":"uint256","internalType":"uint256"}],"outputs":[{"name":"question","type":"string","internalType":"string"},{"name":"rewardPool","type":"uint256","internalType":"uint256"},{"name":"deadline","type":"uint256","internalType":"uint256"},{"name":"creator","type":"address","internalType":"address"},{"name":"resolved","type":"bool","internalType":"bool"}],"stateMutability":"view"},{"type":"function","name":"minStake","inputs":[],"outputs":[{"name":"","type":"uint256","internalType":"uint256"}],"stateMutability":"view"},{"type":"function","name":"owner","inputs":[],"outputs":[{"name":"","type":"address","internalType":"address"}],"stateMutability":"view"},{"type":"function","name":"renounceOwnership","inputs":[],"outputs":[],"stateMutability":"nonpayable"},{"type":"function","name":"reputation","inputs":[{"name":"","type":"address","internalType":"address"}],"outputs":[{"name":"resQualitySum","type":"uint256","internalType":"uint256"},{"name":"srcQualitySum","type":"uint256","internalType":"uint256"},{"name":"analysisDepthSum","type":"uint256","internalType":"uint256"},{"name":"count","type":"uint256","internalType":"uint256"}],"stateMutability":"view"},{"type":"function","name":"reputationRegistry","inputs":[],"outputs":[{"name":"","type":"address","internalType":"contract IERC8004Reputation"}],"stateMutability":"view"},{"type":"function","name":"requestResolution","inputs":[{"name":"marketId","type":"uint256","internalType":"uint256"}],"outputs":[],"stateMutability":"nonpayable"},{"type":"function","name":"resolveMarket","inputs":[{"name":"marketId","type":"uint256","internalType":"uint256"},{"name":"workers","type":"address[]","internalType":"address[]"},{"name":"weights","type":"uint256[]","internalType":"uint256[]"},{"name":"dimScores","type":"uint8[]","internalType":"uint8[]"},{"name":"resolution","type":"bool","internalType":"bool"}],"outputs":[],"stateMutability":"nonpayable"},{"type":"function","name":"setAuthorizedResolver","inputs":[{"name":"resolver","type":"address","internalType":"address"},{"name":"authorized","type":"bool","internalType":"bool"}],"outputs":[],"stateMutability":"nonpayable"},{"type":"function","name":"stakes","inputs":[{"name":"","type":"uint256","internalType":"uint256"},{"name":"","type":"address","internalType":"address"}],"outputs":[{"name":"","type":"uint256","internalType":"uint256"}],"stateMutability":"view"},{"type":"function","name":"transferOwnership","inputs":[{"name":"newOwner","type":"address","internalType":"address"}],"outputs":[],"stateMutability":"nonpayable"},{"type":"function","name":"withdraw","inputs":[],"outputs":[],"stateMutability":"nonpayable"},{"type":"function","name":"workerAgentIds","inputs":[{"name":"","type":"uint256","internalType":"uint256"},{"name":"","type":"address","internalType":"address"}],"outputs":[{"name":"","type":"uint256","internalType":"uint256"}],"stateMutability":"view"},{"type":"event","name":"MarketCreated","inputs":[{"name":"marketId","type":"uint256","indexed":true,"internalType":"uint256"},{"name":"creator","type":"address","indexed":true,"internalType":"address"},{"name":"question","type":"string","indexed":false,"internalType":"string"},{"name":"rewardPool","type":"uint256","indexed":false,"internalType":"uint256"},{"name":"deadline","type":"uint256","indexed":false,"internalType":"uint256"}],"anonymous":false},{"type":"event","name":"MarketResolved","inputs":[{"name":"marketId","type":"uint256","indexed":true,"internalType":"uint256"},{"name":"resolver","type":"address","indexed":true,"internalType":"address"},{"name":"resolution","type":"bool","indexed":false,"internalType":"bool"}],"anonymous":false},{"type":"event","name":"OwnershipTransferred","inputs":[{"name":"previousOwner","type":"address","indexed":true,"internalType":"address"},{"name":"newOwner","type":"address","indexed":true,"internalType":"address"}],"anonymous":false},{"type":"event","name":"ReputationUpdated","inputs":[{"name":"worker","type":"address","indexed":true,"internalType":"address"},{"name":"resQuality","type":"uint256","indexed":false,"internalType":"uint256"},{"name":"srcQuality","type":"uint256","indexed":false,"internalType":"uint256"},{"name":"analysisDepth","type":"uint256","indexed":false,"internalType":"uint256"},{"name":"count","type":"uint256","indexed":false,"internalType":"uint256"}],"anonymous":false},{"type":"event","name":"ResolutionRequested","inputs":[{"name":"marketId","type":"uint256","indexed":true,"internalType":"uint256"},{"name":"question","type":"string","indexed":false,"internalType":"string"}],"anonymous":false},{"type":"event","name":"ResolverUpdated","inputs":[{"name":"resolver","type":"address","indexed":true,"internalType":"address"},{"name":"authorized","type":"bool","indexed":false,"internalType":"bool"}],"anonymous":false},{"type":"event","name":"Withdrawal","inputs":[{"name":"account","type":"address","indexed":true,"internalType":"address"},{"name":"amount","type":"uint256","indexed":false,"internalType":"uint256"}],"anonymous":false},{"type":"event","name":"WorkerJoined","inputs":[{"name":"marketId","type":"uint256","indexed":true,"internalType":"uint256"},{"name":"worker","type":"address","indexed":true,"internalType":"address"},{"name":"stake","type":"uint256","indexed":false,"internalType":"uint256"},{"name":"agentId","type":"uint256","indexed":false,"internalType":"uint256"}],"anonymous":false},{"type":"error","name":"AlreadyJoined","inputs":[{"name":"marketId","type":"uint256","internalType":"uint256"},{"name":"worker","type":"address","internalType":"address"}]},{"type":"error","name":"AlreadyResolved","inputs":[{"name":"marketId","type":"uint256","internalType":"uint256"}]},{"type":"error","name":"ArrayMismatch","inputs":[{"name":"workersLen","type":"uint256","internalType":"uint256"},{"name":"weightsLen","type":"uint256","internalType":"uint256"},{"name":"scoresLen","type":"uint256","internalType":"uint256"}]},{"type":"error","name":"BelowMinStake","inputs":[{"name":"sent","type":"uint256","internalType":"uint256"},{"name":"required","type":"uint256","internalType":"uint256"}]},{"type":"error","name":"EmptyQuestion","inputs":[]},{"type":"error","name":"InvalidDuration","inputs":[]},{"type":"error","name":"MarketAlreadyResolved","inputs":[{"name":"marketId","type":"uint256","internalType":"uint256"}]},{"type":"error","name":"MarketDoesNotExist","inputs":[{"name":"marketId","type":"uint256","internalType":"uint256"}]},{"type":"error","name":"MarketNotActive","inputs":[{"name":"marketId","type":"uint256","internalType":"uint256"}]},{"type":"error","name":"NoBalance","inputs":[]},{"type":"error","name":"NotAgentOwner","inputs":[{"name":"caller","type":"address","internalType":"address"},{"name":"agentId","type":"uint256","internalType":"uint256"}]},{"type":"error","name":"NotMarketCreator","inputs":[{"name":"marketId","type":"uint256","internalType":"uint256"},{"name":"caller","type":"address","internalType":"address"}]},{"type":"error","name":"OwnableInvalidOwner","inputs":[{"name":"owner","type":"address","internalType":"address"}]},{"type":"error","name":"OwnableUnauthorizedAccount","inputs":[{"name":"account","type":"address","internalType":"address"}]},{"type":"error","name":"ReentrancyGuardReentrantCall","inputs":[]},{"type":"error","name":"TooManyWorkers","inputs":[{"name":"count","type":"uint256","internalType":"uint256"},{"name":"max","type":"uint256","internalType":"uint256"}]},{"type":"error","name":"Unauthorized","inputs":[{"name":"caller","type":"address","internalType":"address"}]},{"type":"error","name":"UnregisteredWorker","inputs":[{"name":"marketId","type":"uint256","internalType":"uint256"},{"name":"worker","type":"address","internalType":"address"}]},{"type":"error","name":"ZeroValue","inputs":[]}],"bytecode":{"object":"0x60c0604052662386f26fc1000060095534801561001a575f5ffd5b50604051613b41380380613b41833981810160405281019061003c91906102a1565b335f73ffffffffffffffffffffffffffffffffffffffff168173ffffffffffffffffffffffffffffffffffffffff16036100ad575f6040517f1e4fbdf70000000000000000000000000000000000000000000000000000000081526004016100a491906102ee565b60405180910390fd5b6100bc8161015060201b60201c565b5060016100db6100d061021160201b60201c565b61023a60201b60201c565b5f01819055508173ffffffffffffffffffffffffffffffffffffffff1660808173ffffffffffffffffffffffffffffffffffffffff16815250508073ffffffffffffffffffffffffffffffffffffffff1660a08173ffffffffffffffffffffffffffffffffffffffff16815250505050610307565b5f5f5f9054906101000a900473ffffffffffffffffffffffffffffffffffffffff169050815f5f6101000a81548173ffffffffffffffffffffffffffffffffffffffff021916908373ffffffffffffffffffffffffffffffffffffffff1602179055508173ffffffffffffffffffffffffffffffffffffffff168173ffffffffffffffffffffffffffffffffffffffff167f8be0079c531659141344cd1fd0a4f28419497f9722a3daafe3b4186f6b6457e060405160405180910390a35050565b5f7f9b779b17422d0df92223018b32b4d1fa46e071723d6817e2486d003becc55f005f1b905090565b5f819050919050565b5f5ffd5b5f73ffffffffffffffffffffffffffffffffffffffff82169050919050565b5f61027082610247565b9050919050565b61028081610266565b811461028a575f5ffd5b50565b5f8151905061029b81610277565b92915050565b5f5f604083850312156102b7576102b6610243565b5b5f6102c48582860161028d565b92505060206102d58582860161028d565b9150509250929050565b6102e881610266565b82525050565b5f6020820190506103015f8301846102df565b92915050565b60805160a0516137fd6103445f395f81816112e701528181611fe0015261217901525f81816106a80152818161146c01526114a801526137fd5ff3fe608060405260043610610165575f3560e01c80639c89a0e2116100d0578063d102601811610089578063eb44fdd311610063578063eb44fdd314610540578063ec9790821461057c578063f2fde38b146105a6578063f849f69e146105ce57610165565b8063d1026018146104be578063d794d2d9146104e8578063e21d09bd1461052457610165565b80639c89a0e21461036f578063a9a3bba4146103ae578063b1283e77146103ea578063b85f68ec1461042a578063b9f7945114610455578063c8db44e31461049457610165565b80633ccfd60b116101225780633ccfd60b14610299578063416a4f19146102af578063715018a6146102d7578063883c84c1146102ed5780638a9482171461031d5780638da5cb5b1461034557610165565b806304402c1b14610169578063134e18f4146101a557806327e235e3146101cf5780632e5d2f501461020b578063375b3c0a14610233578063399d67061461025d575b5f5ffd5b348015610174575f5ffd5b5061018f600480360381019061018a9190612502565b61060a565b60405161019c9190612614565b60405180910390f35b3480156101b0575f5ffd5b506101b96106a6565b6040516101c6919061268f565b60405180910390f35b3480156101da575f5ffd5b506101f560048036038101906101f091906126d2565b6106ca565b604051610202919061270c565b60405180910390f35b348015610216575f5ffd5b50610231600480360381019061022c9190612865565b6106df565b005b34801561023e575f5ffd5b506102476107d2565b604051610254919061270c565b60405180910390f35b348015610268575f5ffd5b50610283600480360381019061027e919061293c565b6107d8565b604051610290919061270c565b60405180910390f35b3480156102a4575f5ffd5b506102ad6107f8565b005b3480156102ba575f5ffd5b506102d560048036038101906102d09190612502565b6109be565b005b3480156102e2575f5ffd5b506102eb610b82565b005b610307600480360381019061030291906129cf565b610b95565b604051610314919061270c565b60405180910390f35b348015610328575f5ffd5b50610343600480360381019061033e9190612a2c565b610df2565b005b348015610350575f5ffd5b50610359610ea0565b6040516103669190612a79565b60405180910390f35b34801561037a575f5ffd5b50610395600480360381019061039091906126d2565b610ec7565b6040516103a59493929190612a92565b60405180910390f35b3480156103b9575f5ffd5b506103d460048036038101906103cf919061293c565b610f79565b6040516103e1919061270c565b60405180910390f35b3480156103f5575f5ffd5b50610410600480360381019061040b9190612502565b610f99565b604051610421959493929190612b54565b60405180910390f35b348015610435575f5ffd5b5061043e61107d565b60405161044c929190612d48565b60405180910390f35b348015610460575f5ffd5b5061047b600480360381019061047691906126d2565b6112b9565b60405161048b9493929190612a92565b60405180910390f35b34801561049f575f5ffd5b506104a86112e5565b6040516104b59190612d97565b60405180910390f35b3480156104c9575f5ffd5b506104d2611309565b6040516104df919061270c565b60405180910390f35b3480156104f3575f5ffd5b5061050e600480360381019061050991906126d2565b61130e565b60405161051b9190612db0565b60405180910390f35b61053e60048036038101906105399190612dc9565b61132b565b005b34801561054b575f5ffd5b5061056660048036038101906105619190612502565b6116ea565b6040516105739190612e89565b60405180910390f35b348015610587575f5ffd5b50610590611828565b60405161059d919061270c565b60405180910390f35b3480156105b1575f5ffd5b506105cc60048036038101906105c791906126d2565b61182e565b005b3480156105d9575f5ffd5b506105f460048036038101906105ef9190612502565b6118b2565b6040516106019190612db0565b60405180910390f35b606060045f8381526020019081526020015f2080548060200260200160405190810160405280929190818152602001828054801561069a57602002820191905f5260205f20905b815f9054906101000a900473ffffffffffffffffffffffffffffffffffffffff1673ffffffffffffffffffffffffffffffffffffffff1681526020019060010190808311610651575b50505050509050919050565b7f000000000000000000000000000000000000000000000000000000000000000081565b6006602052805f5260405f205f915090505481565b6106ee88888888888888611901565b5f5f5b888890508110156107305786868281811061070f5761070e612ea9565b5b90506020020135826107219190612f03565b915080806001019150506106f1565b5061073f898989898986611c06565b61074c8989898787611da2565b6001805f8b81526020019081526020015f2060030160146101000a81548160ff0219169083151502179055503373ffffffffffffffffffffffffffffffffffffffff16897fdd895f8f5d520ca7db3fc8259b53d471f0b9c249e49b40c20278f880824e5bb2846040516107bf9190612db0565b60405180910390a3505050505050505050565b60095481565b6005602052815f5260405f20602052805f5260405f205f91509150505481565b61080061221f565b5f60065f3373ffffffffffffffffffffffffffffffffffffffff1673ffffffffffffffffffffffffffffffffffffffff1681526020019081526020015f205490505f810361087a576040517fc2caa2a600000000000000000000000000000000000000000000000000000000815260040160405180910390fd5b5f60065f3373ffffffffffffffffffffffffffffffffffffffff1673ffffffffffffffffffffffffffffffffffffffff1681526020019081526020015f20819055505f3373ffffffffffffffffffffffffffffffffffffffff16826040516108e190612f63565b5f6040518083038185875af1925050503d805f811461091b576040519150601f19603f3d011682016040523d82523d5f602084013e610920565b606091505b5050905080610964576040517f08c379a000000000000000000000000000000000000000000000000000000000815260040161095b90612fc1565b60405180910390fd5b3373ffffffffffffffffffffffffffffffffffffffff167f7fcf532c15f0a6db0bd6d0e038bea71d30d808c7d98cb3bf7268a95bf5081b65836040516109aa919061270c565b60405180910390a250506109bc612241565b565b5f60015f8381526020019081526020015f2090505f816002015403610a1a57816040517f7ff80d38000000000000000000000000000000000000000000000000000000008152600401610a11919061270c565b60405180910390fd5b8060030160149054906101000a900460ff1615610a6e57816040517fed5d23e1000000000000000000000000000000000000000000000000000000008152600401610a65919061270c565b60405180910390fd5b3373ffffffffffffffffffffffffffffffffffffffff16816003015f9054906101000a900473ffffffffffffffffffffffffffffffffffffffff1673ffffffffffffffffffffffffffffffffffffffff1614158015610b005750610ad0610ea0565b73ffffffffffffffffffffffffffffffffffffffff163373ffffffffffffffffffffffffffffffffffffffff1614155b15610b445781336040517f26ee7312000000000000000000000000000000000000000000000000000000008152600401610b3b929190612fdf565b60405180910390fd5b817ff6ab5c2ebaf7695b7fae6b838894cc8d071250c0e84f2fb3eab2b642489802c2825f01604051610b7691906130f6565b60405180910390a25050565b610b8a61225b565b610b935f6122e2565b565b5f5f8484905003610bd2576040517f0d5003f300000000000000000000000000000000000000000000000000000000815260040160405180910390fd5b5f3403610c0b576040517f7c946ed700000000000000000000000000000000000000000000000000000000815260040160405180910390fd5b5f8203610c44576040517f7616640100000000000000000000000000000000000000000000000000000000815260040160405180910390fd5b60025f815480929190610c5690613116565b9190505590506040518060a0016040528085858080601f0160208091040260200160405190810160405280939291908181526020018383808284375f81840152601f19601f8201169050808301925050505050505081526020013481526020018342610cc29190612f03565b81526020013373ffffffffffffffffffffffffffffffffffffffff1681526020015f151581525060015f8381526020019081526020015f205f820151815f019081610d0d919061330f565b5060208201518160010155604082015181600201556060820151816003015f6101000a81548173ffffffffffffffffffffffffffffffffffffffff021916908373ffffffffffffffffffffffffffffffffffffffff16021790555060808201518160030160146101000a81548160ff0219169083151502179055509050503373ffffffffffffffffffffffffffffffffffffffff16817fef6e6cdc1995ad8d47075ab3d22b04d4db5383ffc14b96c6a3a0f38bd9a0f9148686348742610dd39190612f03565b604051610de39493929190613418565b60405180910390a39392505050565b610dfa61225b565b8060075f8473ffffffffffffffffffffffffffffffffffffffff1673ffffffffffffffffffffffffffffffffffffffff1681526020019081526020015f205f6101000a81548160ff0219169083151502179055508173ffffffffffffffffffffffffffffffffffffffff167fd8ea402e95478feee1bea3f652c970c98c456281ae29a9987918e9e8b6754bb482604051610e949190612db0565b60405180910390a25050565b5f5f5f9054906101000a900473ffffffffffffffffffffffffffffffffffffffff16905090565b5f5f5f5f5f60085f8773ffffffffffffffffffffffffffffffffffffffff1673ffffffffffffffffffffffffffffffffffffffff1681526020019081526020015f2090505f816003015403610f28575f5f5f5f945094509450945050610f72565b8060030154815f0154610f3b9190613483565b81600301548260010154610f4f9190613483565b82600301548360020154610f639190613483565b83600301549450945094509450505b9193509193565b6003602052815f5260405f20602052805f5260405f205f91509150505481565b6001602052805f5260405f205f91509050805f018054610fb890613033565b80601f0160208091040260200160405190810160405280929190818152602001828054610fe490613033565b801561102f5780601f106110065761010080835404028352916020019161102f565b820191905f5260205f20905b81548152906001019060200180831161101257829003601f168201915b505050505090806001015490806002015490806003015f9054906101000a900473ffffffffffffffffffffffffffffffffffffffff16908060030160149054906101000a900460ff16905085565b611085612439565b61108d612461565b6040518061010001604052806040518060400160405280601281526020017f5265736f6c7574696f6e205175616c697479000000000000000000000000000081525081526020016040518060400160405280600e81526020017f536f75726365205175616c69747900000000000000000000000000000000000081525081526020016040518060400160405280600e81526020017f416e616c7973697320446570746800000000000000000000000000000000000081525081526020016040518060400160405280601181526020017f526561736f6e696e6720436c617269747900000000000000000000000000000081525081526020016040518060400160405280601181526020017f45766964656e636520537472656e67746800000000000000000000000000000081525081526020016040518060400160405280600e81526020017f426961732041776172656e65737300000000000000000000000000000000000081525081526020016040518060400160405280600a81526020017f54696d656c696e6573730000000000000000000000000000000000000000000081525081526020016040518060400160405280600d81526020017f436f6c6c61626f726174696f6e00000000000000000000000000000000000000815250815250915060405180610100016040528060148152602001600f8152602001600f8152602001600f8152602001600a8152602001600a8152602001600a8152602001600581525090509091565b6008602052805f5260405f205f91509050805f0154908060010154908060020154908060030154905084565b7f000000000000000000000000000000000000000000000000000000000000000081565b600a81565b6007602052805f5260405f205f915054906101000a900460ff1681565b611334826118b2565b61137557816040517f5404ee6800000000000000000000000000000000000000000000000000000000815260040161136c919061270c565b60405180910390fd5b6009543410156113c057346009546040517f9be9d80a0000000000000000000000000000000000000000000000000000000081526004016113b79291906134b3565b60405180910390fd5b5f60035f8481526020019081526020015f205f3373ffffffffffffffffffffffffffffffffffffffff1673ffffffffffffffffffffffffffffffffffffffff1681526020019081526020015f205411156114535781336040517f682bdbac00000000000000000000000000000000000000000000000000000000815260040161144a929190612fdf565b60405180910390fd5b5f73ffffffffffffffffffffffffffffffffffffffff167f000000000000000000000000000000000000000000000000000000000000000073ffffffffffffffffffffffffffffffffffffffff16146115d5577f000000000000000000000000000000000000000000000000000000000000000073ffffffffffffffffffffffffffffffffffffffff1663d95e72be33836040518363ffffffff1660e01b81526004016115019291906134da565b602060405180830381865afa15801561151c573d5f5f3e3d5ffd5b505050506040513d601f19601f820116820180604052508101906115409190613515565b6115835733816040517f9e28881100000000000000000000000000000000000000000000000000000000815260040161157a9291906134da565b60405180910390fd5b8060055f8481526020019081526020015f205f3373ffffffffffffffffffffffffffffffffffffffff1673ffffffffffffffffffffffffffffffffffffffff1681526020019081526020015f20819055505b3460035f8481526020019081526020015f205f3373ffffffffffffffffffffffffffffffffffffffff1673ffffffffffffffffffffffffffffffffffffffff1681526020019081526020015f208190555060045f8381526020019081526020015f2033908060018154018082558091505060019003905f5260205f20015f9091909190916101000a81548173ffffffffffffffffffffffffffffffffffffffff021916908373ffffffffffffffffffffffffffffffffffffffff1602179055503373ffffffffffffffffffffffffffffffffffffffff16827ff8d1c2cee1493e69f67b10a4381ace5daf5aa7a37879e3407e94d3945dad0bd834846040516116de9291906134b3565b60405180910390a35050565b6116f2612484565b60015f8381526020019081526020015f206040518060a00160405290815f8201805461171d90613033565b80601f016020809104026020016040519081016040528092919081815260200182805461174990613033565b80156117945780601f1061176b57610100808354040283529160200191611794565b820191905f5260205f20905b81548152906001019060200180831161177757829003601f168201915b505050505081526020016001820154815260200160028201548152602001600382015f9054906101000a900473ffffffffffffffffffffffffffffffffffffffff1673ffffffffffffffffffffffffffffffffffffffff1673ffffffffffffffffffffffffffffffffffffffff1681526020016003820160149054906101000a900460ff1615151515815250509050919050565b60025481565b61183661225b565b5f73ffffffffffffffffffffffffffffffffffffffff168173ffffffffffffffffffffffffffffffffffffffff16036118a6575f6040517f1e4fbdf700000000000000000000000000000000000000000000000000000000815260040161189d9190612a79565b60405180910390fd5b6118af816122e2565b50565b5f5f60015f8481526020019081526020015f2090505f81600201541180156118e957508060030160149054906101000a900460ff16155b80156118f9575080600201544211155b915050919050565b5f60015f8981526020019081526020015f2090508060030160149054906101000a900460ff161561196957876040517fe1ba032d000000000000000000000000000000000000000000000000000000008152600401611960919061270c565b60405180910390fd5b5f8160020154036119b157876040517f5404ee680000000000000000000000000000000000000000000000000000000081526004016119a8919061270c565b60405180910390fd5b600a878790501115611a005786869050600a6040517f7494c5920000000000000000000000000000000000000000000000000000000081526004016119f79291906134b3565b60405180910390fd5b8484905087879050141580611a275750600387879050611a209190613540565b8383905014155b15611a76578686905085859050848490506040517fd3f63986000000000000000000000000000000000000000000000000000000008152600401611a6d93929190613581565b60405180910390fd5b60075f3373ffffffffffffffffffffffffffffffffffffffff1673ffffffffffffffffffffffffffffffffffffffff1681526020019081526020015f205f9054906101000a900460ff16611b0157336040517f8e4a23d6000000000000000000000000000000000000000000000000000000008152600401611af89190612a79565b60405180910390fd5b5f5b87879050811015611bfb575f60035f8b81526020019081526020015f205f8a8a85818110611b3457611b33612ea9565b5b9050602002016020810190611b4991906126d2565b73ffffffffffffffffffffffffffffffffffffffff1673ffffffffffffffffffffffffffffffffffffffff1681526020019081526020015f205403611bee5788888883818110611b9c57611b9b612ea9565b5b9050602002016020810190611bb191906126d2565b6040517fb812feb3000000000000000000000000000000000000000000000000000000008152600401611be5929190612fdf565b60405180910390fd5b8080600101915050611b03565b505050505050505050565b5f60015f8881526020019081526020015f206001015490505f5b86869050811015611d98575f878783818110611c3f57611c3e612ea9565b5b9050602002016020810190611c5491906126d2565b90505f84878785818110611c6b57611c6a612ea9565b5b9050602002013585611c7d9190613540565b611c879190613483565b90505f60035f8c81526020019081526020015f205f8473ffffffffffffffffffffffffffffffffffffffff1673ffffffffffffffffffffffffffffffffffffffff1681526020019081526020015f205490508082611ce59190612f03565b60065f8573ffffffffffffffffffffffffffffffffffffffff1673ffffffffffffffffffffffffffffffffffffffff1681526020019081526020015f205f828254611d309190612f03565b925050819055505f60035f8d81526020019081526020015f205f8573ffffffffffffffffffffffffffffffffffffffff1673ffffffffffffffffffffffffffffffffffffffff1681526020019081526020015f20819055505050508080600101915050611c20565b5050505050505050565b5f5b84849050811015611fc6575f858583818110611dc357611dc2612ea9565b5b9050602002016020810190611dd891906126d2565b90505f600383611de89190613540565b90505f60085f8473ffffffffffffffffffffffffffffffffffffffff1673ffffffffffffffffffffffffffffffffffffffff1681526020019081526020015f209050858583818110611e3d57611e3c612ea9565b5b9050602002016020810190611e5291906135ec565b60ff16815f015f828254611e669190612f03565b925050819055508585600184611e7c9190612f03565b818110611e8c57611e8b612ea9565b5b9050602002016020810190611ea191906135ec565b60ff16816001015f828254611eb69190612f03565b925050819055508585600284611ecc9190612f03565b818110611edc57611edb612ea9565b5b9050602002016020810190611ef191906135ec565b60ff16816002015f828254611f069190612f03565b92505081905550806003015f815480929190611f2190613116565b91905055508273ffffffffffffffffffffffffffffffffffffffff167f7422c3445cfc7c8b4138fbbf7c7fcf8c9f6a3adfcc49af7c8975676a27e4aa608260030154835f0154611f719190613483565b83600301548460010154611f859190613483565b84600301548560020154611f999190613483565b8560030154604051611fae9493929190612a92565b60405180910390a25050508080600101915050611da4565b505f73ffffffffffffffffffffffffffffffffffffffff167f000000000000000000000000000000000000000000000000000000000000000073ffffffffffffffffffffffffffffffffffffffff1614612218575f5b84849050811015612216575f60055f8881526020019081526020015f205f87878581811061204d5761204c612ea9565b5b905060200201602081019061206291906126d2565b73ffffffffffffffffffffffffffffffffffffffff1673ffffffffffffffffffffffffffffffffffffffff1681526020019081526020015f205490505f81036120ab5750612209565b5f6003836120b99190613540565b90505f600386866002856120cd9190612f03565b8181106120dd576120dc612ea9565b5b90506020020160208101906120f291906135ec565b60ff1687876001866121049190612f03565b81811061211457612113612ea9565b5b905060200201602081019061212991906135ec565b60ff1688888681811061213f5761213e612ea9565b5b905060200201602081019061215491906135ec565b60ff166121619190612f03565b61216b9190612f03565b6121759190613483565b90507f000000000000000000000000000000000000000000000000000000000000000073ffffffffffffffffffffffffffffffffffffffff16633c036a7e84835f5f5f1b6040518563ffffffff1660e01b81526004016121d89493929190613737565b5f604051808303815f87803b1580156121ef575f5ffd5b505af1158015612201573d5f5f3e3d5ffd5b505050505050505b808060010191505061201c565b505b5050505050565b6122276123a3565b60026122396122346123e4565b61240d565b5f0181905550565b600161225361224e6123e4565b61240d565b5f0181905550565b612263612416565b73ffffffffffffffffffffffffffffffffffffffff16612281610ea0565b73ffffffffffffffffffffffffffffffffffffffff16146122e0576122a4612416565b6040517f118cdaa70000000000000000000000000000000000000000000000000000000081526004016122d79190612a79565b60405180910390fd5b565b5f5f5f9054906101000a900473ffffffffffffffffffffffffffffffffffffffff169050815f5f6101000a81548173ffffffffffffffffffffffffffffffffffffffff021916908373ffffffffffffffffffffffffffffffffffffffff1602179055508173ffffffffffffffffffffffffffffffffffffffff168173ffffffffffffffffffffffffffffffffffffffff167f8be0079c531659141344cd1fd0a4f28419497f9722a3daafe3b4186f6b6457e060405160405180910390a35050565b6123ab61241d565b156123e2576040517f3ee5aeb500000000000000000000000000000000000000000000000000000000815260040160405180910390fd5b565b5f7f9b779b17422d0df92223018b32b4d1fa46e071723d6817e2486d003becc55f005f1b905090565b5f819050919050565b5f33905090565b5f600261243061242b6123e4565b61240d565b5f015414905090565b6040518061010001604052806008905b60608152602001906001900390816124495790505090565b604051806101000160405280600890602082028036833780820191505090505090565b6040518060a00160405280606081526020015f81526020015f81526020015f73ffffffffffffffffffffffffffffffffffffffff1681526020015f151581525090565b5f5ffd5b5f5ffd5b5f819050919050565b6124e1816124cf565b81146124eb575f5ffd5b50565b5f813590506124fc816124d8565b92915050565b5f60208284031215612517576125166124c7565b5b5f612524848285016124ee565b91505092915050565b5f81519050919050565b5f82825260208201905092915050565b5f819050602082019050919050565b5f73ffffffffffffffffffffffffffffffffffffffff82169050919050565b5f61257f82612556565b9050919050565b61258f81612575565b82525050565b5f6125a08383612586565b60208301905092915050565b5f602082019050919050565b5f6125c28261252d565b6125cc8185612537565b93506125d783612547565b805f5b838110156126075781516125ee8882612595565b97506125f9836125ac565b9250506001810190506125da565b5085935050505092915050565b5f6020820190508181035f83015261262c81846125b8565b905092915050565b5f819050919050565b5f61265761265261264d84612556565b612634565b612556565b9050919050565b5f6126688261263d565b9050919050565b5f6126798261265e565b9050919050565b6126898161266f565b82525050565b5f6020820190506126a25f830184612680565b92915050565b6126b181612575565b81146126bb575f5ffd5b50565b5f813590506126cc816126a8565b92915050565b5f602082840312156126e7576126e66124c7565b5b5f6126f4848285016126be565b91505092915050565b612706816124cf565b82525050565b5f60208201905061271f5f8301846126fd565b92915050565b5f5ffd5b5f5ffd5b5f5ffd5b5f5f83601f84011261274657612745612725565b5b8235905067ffffffffffffffff81111561276357612762612729565b5b60208301915083602082028301111561277f5761277e61272d565b5b9250929050565b5f5f83601f84011261279b5761279a612725565b5b8235905067ffffffffffffffff8111156127b8576127b7612729565b5b6020830191508360208202830111156127d4576127d361272d565b5b9250929050565b5f5f83601f8401126127f0576127ef612725565b5b8235905067ffffffffffffffff81111561280d5761280c612729565b5b6020830191508360208202830111156128295761282861272d565b5b9250929050565b5f8115159050919050565b61284481612830565b811461284e575f5ffd5b50565b5f8135905061285f8161283b565b92915050565b5f5f5f5f5f5f5f5f60a0898b031215612881576128806124c7565b5b5f61288e8b828c016124ee565b985050602089013567ffffffffffffffff8111156128af576128ae6124cb565b5b6128bb8b828c01612731565b9750975050604089013567ffffffffffffffff8111156128de576128dd6124cb565b5b6128ea8b828c01612786565b9550955050606089013567ffffffffffffffff81111561290d5761290c6124cb565b5b6129198b828c016127db565b9350935050608061292c8b828c01612851565b9150509295985092959890939650565b5f5f60408385031215612952576129516124c7565b5b5f61295f858286016124ee565b9250506020612970858286016126be565b9150509250929050565b5f5f83601f84011261298f5761298e612725565b5b8235905067ffffffffffffffff8111156129ac576129ab612729565b5b6020830191508360018202830111156129c8576129c761272d565b5b9250929050565b5f5f5f604084860312156129e6576129e56124c7565b5b5f84013567ffffffffffffffff811115612a0357612a026124cb565b5b612a0f8682870161297a565b93509350506020612a22868287016124ee565b9150509250925092565b5f5f60408385031215612a4257612a416124c7565b5b5f612a4f858286016126be565b9250506020612a6085828601612851565b9150509250929050565b612a7381612575565b82525050565b5f602082019050612a8c5f830184612a6a565b92915050565b5f608082019050612aa55f8301876126fd565b612ab260208301866126fd565b612abf60408301856126fd565b612acc60608301846126fd565b95945050505050565b5f81519050919050565b5f82825260208201905092915050565b8281835e5f83830152505050565b5f601f19601f8301169050919050565b5f612b1782612ad5565b612b218185612adf565b9350612b31818560208601612aef565b612b3a81612afd565b840191505092915050565b612b4e81612830565b82525050565b5f60a0820190508181035f830152612b6c8188612b0d565b9050612b7b60208301876126fd565b612b8860408301866126fd565b612b956060830185612a6a565b612ba26080830184612b45565b9695505050505050565b5f60089050919050565b5f81905092915050565b5f819050919050565b5f82825260208201905092915050565b5f612be382612ad5565b612bed8185612bc9565b9350612bfd818560208601612aef565b612c0681612afd565b840191505092915050565b5f612c1c8383612bd9565b905092915050565b5f602082019050919050565b5f612c3a82612bac565b612c448185612bb6565b935083602082028501612c5685612bc0565b805f5b85811015612c915784840389528151612c728582612c11565b9450612c7d83612c24565b925060208a01995050600181019050612c59565b50829750879550505050505092915050565b5f60089050919050565b5f81905092915050565b5f819050919050565b612cc9816124cf565b82525050565b5f612cda8383612cc0565b60208301905092915050565b5f602082019050919050565b612cfb81612ca3565b612d058184612cad565b9250612d1082612cb7565b805f5b83811015612d40578151612d278782612ccf565b9650612d3283612ce6565b925050600181019050612d13565b505050505050565b5f610120820190508181035f830152612d618185612c30565b9050612d706020830184612cf2565b9392505050565b5f612d818261265e565b9050919050565b612d9181612d77565b82525050565b5f602082019050612daa5f830184612d88565b92915050565b5f602082019050612dc35f830184612b45565b92915050565b5f5f60408385031215612ddf57612dde6124c7565b5b5f612dec858286016124ee565b9250506020612dfd858286016124ee565b9150509250929050565b612e1081612830565b82525050565b5f60a083015f8301518482035f860152612e308282612bd9565b9150506020830151612e456020860182612cc0565b506040830151612e586040860182612cc0565b506060830151612e6b6060860182612586565b506080830151612e7e6080860182612e07565b508091505092915050565b5f6020820190508181035f830152612ea18184612e16565b905092915050565b7f4e487b71000000000000000000000000000000000000000000000000000000005f52603260045260245ffd5b7f4e487b71000000000000000000000000000000000000000000000000000000005f52601160045260245ffd5b5f612f0d826124cf565b9150612f18836124cf565b9250828201905080821115612f3057612f2f612ed6565b5b92915050565b5f81905092915050565b50565b5f612f4e5f83612f36565b9150612f5982612f40565b5f82019050919050565b5f612f6d82612f43565b9150819050919050565b7f5472616e73666572206661696c656400000000000000000000000000000000005f82015250565b5f612fab600f83612adf565b9150612fb682612f77565b602082019050919050565b5f6020820190508181035f830152612fd881612f9f565b9050919050565b5f604082019050612ff25f8301856126fd565b612fff6020830184612a6a565b9392505050565b7f4e487b71000000000000000000000000000000000000000000000000000000005f52602260045260245ffd5b5f600282049050600182168061304a57607f821691505b60208210810361305d5761305c613006565b5b50919050565b5f819050815f5260205f209050919050565b5f815461308181613033565b61308b8186612adf565b9450600182165f81146130a557600181146130bb576130ed565b60ff1983168652811515602002860193506130ed565b6130c485613063565b5f5b838110156130e5578154818901526001820191506020810190506130c6565b808801955050505b50505092915050565b5f6020820190508181035f83015261310e8184613075565b905092915050565b5f613120826124cf565b91507fffffffffffffffffffffffffffffffffffffffffffffffffffffffffffffffff820361315257613151612ed6565b5b600182019050919050565b7f4e487b71000000000000000000000000000000000000000000000000000000005f52604160045260245ffd5b5f6020601f8301049050919050565b5f82821b905092915050565b5f600883026131d47fffffffffffffffffffffffffffffffffffffffffffffffffffffffffffffffff82613199565b6131de8683613199565b95508019841693508086168417925050509392505050565b5f61321061320b613206846124cf565b612634565b6124cf565b9050919050565b5f819050919050565b613229836131f6565b61323d61323582613217565b8484546131a5565b825550505050565b5f5f905090565b613254613245565b61325f818484613220565b505050565b5b81811015613282576132775f8261324c565b600181019050613265565b5050565b601f8211156132c75761329881613063565b6132a18461318a565b810160208510156132b0578190505b6132c46132bc8561318a565b830182613264565b50505b505050565b5f82821c905092915050565b5f6132e75f19846008026132cc565b1980831691505092915050565b5f6132ff83836132d8565b9150826002028217905092915050565b61331882612ad5565b67ffffffffffffffff8111156133315761333061315d565b5b61333b8254613033565b613346828285613286565b5f60209050601f831160018114613377575f8415613365578287015190505b61336f85826132f4565b8655506133d6565b601f19841661338586613063565b5f5b828110156133ac57848901518255600182019150602085019450602081019050613387565b868310156133c957848901516133c5601f8916826132d8565b8355505b6001600288020188555050505b505050505050565b828183375f83830152505050565b5f6133f78385612adf565b93506134048385846133de565b61340d83612afd565b840190509392505050565b5f6060820190508181035f8301526134318186886133ec565b905061344060208301856126fd565b61344d60408301846126fd565b95945050505050565b7f4e487b71000000000000000000000000000000000000000000000000000000005f52601260045260245ffd5b5f61348d826124cf565b9150613498836124cf565b9250826134a8576134a7613456565b5b828204905092915050565b5f6040820190506134c65f8301856126fd565b6134d360208301846126fd565b9392505050565b5f6040820190506134ed5f830185612a6a565b6134fa60208301846126fd565b9392505050565b5f8151905061350f8161283b565b92915050565b5f6020828403121561352a576135296124c7565b5b5f61353784828501613501565b91505092915050565b5f61354a826124cf565b9150613555836124cf565b9250828202613563816124cf565b9150828204841483151761357a57613579612ed6565b5b5092915050565b5f6060820190506135945f8301866126fd565b6135a160208301856126fd565b6135ae60408301846126fd565b949350505050565b5f60ff82169050919050565b6135cb816135b6565b81146135d5575f5ffd5b50565b5f813590506135e6816135c2565b92915050565b5f60208284031215613601576136006124c7565b5b5f61360e848285016135d8565b91505092915050565b5f81600f0b9050919050565b61362c81613617565b82525050565b5f819050919050565b5f61365561365061364b84613632565b612634565b6135b6565b9050919050565b6136658161363b565b82525050565b7f7265736f6c7574696f6e000000000000000000000000000000000000000000005f82015250565b5f61369f600a83612adf565b91506136aa8261366b565b602082019050919050565b7f637265736f6c76657200000000000000000000000000000000000000000000005f82015250565b5f6136e9600983612adf565b91506136f4826136b5565b602082019050919050565b5f61370a5f83612adf565b915061371582612f40565b5f82019050919050565b5f819050919050565b6137318161371f565b82525050565b5f6101008201905061374b5f8301876126fd565b6137586020830186613623565b613765604083018561365c565b818103606083015261377681613693565b90508181036080830152613789816136dd565b905081810360a083015261379c816136ff565b905081810360c08301526137af816136ff565b90506137be60e0830184613728565b9594505050505056fea2646970667358221220730ead87ce627b18eac8ff7aa8400d1ec067e642949d5e7b5e9bc840cff00ea364736f6c634300081e0033","linkReferences":{}},"methodIdentifiers":{"MAX_WORKERS()":"d1026018","authorizedResolvers(address)":"d794d2d9","balances(address)":"27e235e3","createMarket(string,uint256)":"883c84c1","getMarket(uint256)":"eb44fdd3","getMarketWorkers(uint256)":"04402c1b","getReputation(address)":"9c89a0e2","getScoringCriteria()":"b85f68ec","identityRegistry()":"134e18f4","isMarketActive(uint256)":"f849f69e","joinMarket(uint256,uint256)":"e21d09bd","marketCount()":"ec979082","markets(uint256)":"b1283e77","minStake()":"375b3c0a","owner()":"8da5cb5b","renounceOwnership()":"715018a6","reputation(address)":"b9f79451","reputationRegistry()":"c8db44e3","requestResolution(uint256)":"416a4f19","resolveMarket(uint256,address[],uint256[],uint8[],bool)":"2e5d2f50","setAuthorizedResolver(address,bool)":"8a948217","stakes(uint256,address)":"a9a3bba4","transferOwnership(address)":"f2fde38b","withdraw()":"3ccfd60b","workerAgentIds(uint256,address)":"399d6706"},"id":25}