{"abi":[{"type":"constructor","inputs":[],"stateMutability":"nonpayable"},{"type":"function","name":"MAX_WORKERS","inputs":[],"outputs":[{"name":"","type":"uint256","internalType":"uint256"}],"stateMutability":"view"},{"type":"function","name":"authorizedResolvers","inputs":[{"name":"","type":"address","internalType":"address"}],"outputs":[{"name":"","type":"bool","internalType":"bool"}],"stateMutability":"view"},{"type":"function","name":"balances","inputs":[{"name":"","type":"address","internalType":"address"}],"outputs":[{"name":"","type":"uint256","internalType":"uint256"}],"stateMutability":"view"},{"type":"function","name":"createMarket","inputs":[{"name":"question","type":"string","internalType":"string"},{"name":"duration","type":"uint256","internalType":"uint256"}],"outputs":[{"name":"marketId","type":"uint256","internalType":"uint256"}],"stateMutability":"payable"},{"type":"function","name":"getMarket","inputs":[{"name":"marketId","type":"uint256","internalType":"uint256"}],"outputs":[{"name":"","type":"tuple","internalType":"struct CREsolverMarket.Market","components":[{"name":"question","type":"string","internalType":"string"},{"name":"rewardPool","type":"uint256","internalType":"uint256"},{"name":"deadline","type":"uint256","internalType":"uint256"},{"name":"creator","type":"address","internalType":"address"},{"name":"resolved","type":"bool","internalType":"bool"}]}],"stateMutability":"view"},{"type":"function","name":"getMarketWorkers","inputs":[{"name":"marketId","type":"uint256","internalType":"uint256"}],"outputs":[{"name":"","type":"address[]","internalType":"address[]"}],"stateMutability":"view"},{"type":"function","name":"getReputation","inputs":[{"name":"worker","type":"address","internalType":"address"}],"outputs":[{"name":"resQuality","type":"uint256","internalType":"uint256"},{"name":"srcQuality","type":"uint256","internalType":"uint256"},{"name":"analysisDepth","type":"uint256","internalType":"uint256"},{"name":"count","type":"uint256","internalType":"uint256"}],"stateMutability":"view"},{"type":"function","name":"getScoringCriteria","inputs":[],"outputs":[{"name":"names","type":"string[8]","internalType":"string[8]"},{"name":"weights","type":"uint256[8]","internalType":"uint256[8]"}],"stateMutability":"pure"},{"type":"function","name":"isMarketActive","inputs":[{"name":"marketId","type":"uint256","internalType":"uint256"}],"outputs":[{"name":"","type":"bool","internalType":"bool"}],"stateMutability":"view"},{"type":"function","name":"joinMarket","inputs":[{"name":"marketId","type":"uint256","internalType":"uint256"}],"outputs":[],"stateMutability":"payable"},{"type":"function","name":"marketCount","inputs":[],"outputs":[{"name":"","type":"uint256","internalType":"uint256"}],"stateMutability":"view"},{"type":"function","name":"markets","inputs":[{"name":"","type":"uint256","internalType":"uint256"}],"outputs":[{"name":"question","type":"string","internalType":"string"},{"name":"rewardPool","type":"uint256","internalType":"uint256"},{"name":"deadline","type":"uint256","internalType":"uint256"},{"name":"creator","type":"address","internalType":"address"},{"name":"resolved","type":"bool","internalType":"bool"}],"stateMutability":"view"},{"type":"function","name":"minStake","inputs":[],"outputs":[{"name":"","type":"uint256","internalType":"uint256"}],"stateMutability":"view"},{"type":"function","name":"owner","inputs":[],"outputs":[{"name":"","type":"address","internalType":"address"}],"stateMutability":"view"},{"type":"function","name":"renounceOwnership","inputs":[],"outputs":[],"stateMutability":"nonpayable"},{"type":"function","name":"reputation","inputs":[{"name":"","type":"address","internalType":"address"}],"outputs":[{"name":"resQualitySum","type":"uint256","internalType":"uint256"},{"name":"srcQualitySum","type":"uint256","internalType":"uint256"},{"name":"analysisDepthSum","type":"uint256","internalType":"uint256"},{"name":"count","type":"uint256","internalType":"uint256"}],"stateMutability":"view"},{"type":"function","name":"resolveMarket","inputs":[{"name":"marketId","type":"uint256","internalType":"uint256"},{"name":"workers","type":"address[]","internalType":"address[]"},{"name":"weights","type":"uint256[]","internalType":"uint256[]"},{"name":"dimScores","type":"uint8[]","internalType":"uint8[]"},{"name":"resolution","type":"bool","internalType":"bool"}],"outputs":[],"stateMutability":"nonpayable"},{"type":"function","name":"setAuthorizedResolver","inputs":[{"name":"resolver","type":"address","internalType":"address"},{"name":"authorized","type":"bool","internalType":"bool"}],"outputs":[],"stateMutability":"nonpayable"},{"type":"function","name":"stakes","inputs":[{"name":"","type":"uint256","internalType":"uint256"},{"name":"","type":"address","internalType":"address"}],"outputs":[{"name":"","type":"uint256","internalType":"uint256"}],"stateMutability":"view"},{"type":"function","name":"transferOwnership","inputs":[{"name":"newOwner","type":"address","internalType":"address"}],"outputs":[],"stateMutability":"nonpayable"},{"type":"function","name":"withdraw","inputs":[],"outputs":[],"stateMutability":"nonpayable"},{"type":"event","name":"MarketCreated","inputs":[{"name":"marketId","type":"uint256","indexed":true,"internalType":"uint256"},{"name":"creator","type":"address","indexed":true,"internalType":"address"},{"name":"question","type":"string","indexed":false,"internalType":"string"},{"name":"rewardPool","type":"uint256","indexed":false,"internalType":"uint256"},{"name":"deadline","type":"uint256","indexed":false,"internalType":"uint256"}],"anonymous":false},{"type":"event","name":"MarketResolved","inputs":[{"name":"marketId","type":"uint256","indexed":true,"internalType":"uint256"},{"name":"resolver","type":"address","indexed":true,"internalType":"address"},{"name":"resolution","type":"bool","indexed":false,"internalType":"bool"}],"anonymous":false},{"type":"event","name":"OwnershipTransferred","inputs":[{"name":"previousOwner","type":"address","indexed":true,"internalType":"address"},{"name":"newOwner","type":"address","indexed":true,"internalType":"address"}],"anonymous":false},{"type":"event","name":"ReputationUpdated","inputs":[{"name":"worker","type":"address","indexed":true,"internalType":"address"},{"name":"resQuality","type":"uint256","indexed":false,"internalType":"uint256"},{"name":"srcQuality","type":"uint256","indexed":false,"internalType":"uint256"},{"name":"analysisDepth","type":"uint256","indexed":false,"internalType":"uint256"},{"name":"count","type":"uint256","indexed":false,"internalType":"uint256"}],"anonymous":false},{"type":"event","name":"ResolverUpdated","inputs":[{"name":"resolver","type":"address","indexed":true,"internalType":"address"},{"name":"authorized","type":"bool","indexed":false,"internalType":"bool"}],"anonymous":false},{"type":"event","name":"Withdrawal","inputs":[{"name":"account","type":"address","indexed":true,"internalType":"address"},{"name":"amount","type":"uint256","indexed":false,"internalType":"uint256"}],"anonymous":false},{"type":"event","name":"WorkerJoined","inputs":[{"name":"marketId","type":"uint256","indexed":true,"internalType":"uint256"},{"name":"worker","type":"address","indexed":true,"internalType":"address"},{"name":"stake","type":"uint256","indexed":false,"internalType":"uint256"}],"anonymous":false},{"type":"error","name":"AlreadyJoined","inputs":[{"name":"marketId","type":"uint256","internalType":"uint256"},{"name":"worker","type":"address","internalType":"address"}]},{"type":"error","name":"AlreadyResolved","inputs":[{"name":"marketId","type":"uint256","internalType":"uint256"}]},{"type":"error","name":"ArrayMismatch","inputs":[{"name":"workersLen","type":"uint256","internalType":"uint256"},{"name":"weightsLen","type":"uint256","internalType":"uint256"},{"name":"scoresLen","type":"uint256","internalType":"uint256"}]},{"type":"error","name":"BelowMinStake","inputs":[{"name":"sent","type":"uint256","internalType":"uint256"},{"name":"required","type":"uint256","internalType":"uint256"}]},{"type":"error","name":"EmptyQuestion","inputs":[]},{"type":"error","name":"InvalidDuration","inputs":[]},{"type":"error","name":"MarketNotActive","inputs":[{"name":"marketId","type":"uint256","internalType":"uint256"}]},{"type":"error","name":"NoBalance","inputs":[]},{"type":"error","name":"OwnableInvalidOwner","inputs":[{"name":"owner","type":"address","internalType":"address"}]},{"type":"error","name":"OwnableUnauthorizedAccount","inputs":[{"name":"account","type":"address","internalType":"address"}]},{"type":"error","name":"ReentrancyGuardReentrantCall","inputs":[]},{"type":"error","name":"TooManyWorkers","inputs":[{"name":"count","type":"uint256","internalType":"uint256"},{"name":"max","type":"uint256","internalType":"uint256"}]},{"type":"error","name":"Unauthorized","inputs":[{"name":"caller","type":"address","internalType":"address"}]},{"type":"error","name":"UnregisteredWorker","inputs":[{"name":"marketId","type":"uint256","internalType":"uint256"},{"name":"worker","type":"address","internalType":"address"}]},{"type":"error","name":"ZeroValue","inputs":[]}],"bytecode":{"object":"0x6080604052662386f26fc1000060085534801561001a575f5ffd5b50335f73ffffffffffffffffffffffffffffffffffffffff168173ffffffffffffffffffffffffffffffffffffffff160361008c575f6040517f1e4fbdf700000000000000000000000000000000000000000000000000000000815260040161008391906101f7565b60405180910390fd5b61009b816100c560201b60201c565b5060016100ba6100af61018660201b60201c565b6101af60201b60201c565b5f0181905550610210565b5f5f5f9054906101000a900473ffffffffffffffffffffffffffffffffffffffff169050815f5f6101000a81548173ffffffffffffffffffffffffffffffffffffffff021916908373ffffffffffffffffffffffffffffffffffffffff1602179055508173ffffffffffffffffffffffffffffffffffffffff168173ffffffffffffffffffffffffffffffffffffffff167f8be0079c531659141344cd1fd0a4f28419497f9722a3daafe3b4186f6b6457e060405160405180910390a35050565b5f7f9b779b17422d0df92223018b32b4d1fa46e071723d6817e2486d003becc55f005f1b905090565b5f819050919050565b5f73ffffffffffffffffffffffffffffffffffffffff82169050919050565b5f6101e1826101b8565b9050919050565b6101f1816101d7565b82525050565b5f60208201905061020a5f8301846101e8565b92915050565b612d6c8061021d5f395ff3fe608060405260043610610129575f3560e01c8063a9a3bba4116100aa578063d10260181161006e578063d1026018146103e6578063d794d2d914610410578063eb44fdd31461044c578063ec97908214610488578063f2fde38b146104b2578063f849f69e146104da57610129565b8063a9a3bba4146102e4578063b1283e7714610320578063b85f68ec14610360578063b9f794511461038b578063caca6ff5146103ca57610129565b8063715018a6116100f1578063715018a61461020d578063883c84c1146102235780638a948217146102535780638da5cb5b1461027b5780639c89a0e2146102a557610129565b806304402c1b1461012d57806327e235e3146101695780632e5d2f50146101a5578063375b3c0a146101cd5780633ccfd60b146101f7575b5f5ffd5b348015610138575f5ffd5b50610153600480360381019061014e9190611e0a565b610516565b6040516101609190611f1c565b60405180910390f35b348015610174575f5ffd5b5061018f600480360381019061018a9190611f66565b6105b2565b60405161019c9190611fa0565b60405180910390f35b3480156101b0575f5ffd5b506101cb60048036038101906101c691906120f9565b6105c7565b005b3480156101d8575f5ffd5b506101e16106b9565b6040516101ee9190611fa0565b60405180910390f35b348015610202575f5ffd5b5061020b6106bf565b005b348015610218575f5ffd5b50610221610885565b005b61023d60048036038101906102389190612225565b610898565b60405161024a9190611fa0565b60405180910390f35b34801561025e575f5ffd5b5061027960048036038101906102749190612282565b610af5565b005b348015610286575f5ffd5b5061028f610ba3565b60405161029c91906122cf565b60405180910390f35b3480156102b0575f5ffd5b506102cb60048036038101906102c69190611f66565b610bca565b6040516102db94939291906122e8565b60405180910390f35b3480156102ef575f5ffd5b5061030a6004803603810190610305919061232b565b610c7c565b6040516103179190611fa0565b60405180910390f35b34801561032b575f5ffd5b5061034660048036038101906103419190611e0a565b610c9c565b6040516103579594939291906123e8565b60405180910390f35b34801561036b575f5ffd5b50610374610d80565b6040516103829291906125dc565b60405180910390f35b348015610396575f5ffd5b506103b160048036038101906103ac9190611f66565b610fbc565b6040516103c194939291906122e8565b60405180910390f35b6103e460048036038101906103df9190611e0a565b610fe8565b005b3480156103f1575f5ffd5b506103fa611222565b6040516104079190611fa0565b60405180910390f35b34801561041b575f5ffd5b5061043660048036038101906104319190611f66565b611227565b604051610443919061260b565b60405180910390f35b348015610457575f5ffd5b50610472600480360381019061046d9190611e0a565b611244565b60405161047f91906126a6565b60405180910390f35b348015610493575f5ffd5b5061049c611382565b6040516104a99190611fa0565b60405180910390f35b3480156104bd575f5ffd5b506104d860048036038101906104d39190611f66565b611388565b005b3480156104e5575f5ffd5b5061050060048036038101906104fb9190611e0a565b61140c565b60405161050d919061260b565b60405180910390f35b606060045f8381526020019081526020015f208054806020026020016040519081016040528092919081815260200182805480156105a657602002820191905f5260205f20905b815f9054906101000a900473ffffffffffffffffffffffffffffffffffffffff1673ffffffffffffffffffffffffffffffffffffffff168152602001906001019080831161055d575b50505050509050919050565b6005602052805f5260405f205f915090505481565b6105d68888888888888861145b565b5f5f5b88889050811015610618578686828181106105f7576105f66126c6565b5b90506020020135826106099190612720565b915080806001019150506105d9565b50610627898989898986611760565b610633888886866118fc565b6001805f8b81526020019081526020015f2060030160146101000a81548160ff0219169083151502179055503373ffffffffffffffffffffffffffffffffffffffff16897fdd895f8f5d520ca7db3fc8259b53d471f0b9c249e49b40c20278f880824e5bb2846040516106a6919061260b565b60405180910390a3505050505050505050565b60085481565b6106c7611b27565b5f60055f3373ffffffffffffffffffffffffffffffffffffffff1673ffffffffffffffffffffffffffffffffffffffff1681526020019081526020015f205490505f8103610741576040517fc2caa2a600000000000000000000000000000000000000000000000000000000815260040160405180910390fd5b5f60055f3373ffffffffffffffffffffffffffffffffffffffff1673ffffffffffffffffffffffffffffffffffffffff1681526020019081526020015f20819055505f3373ffffffffffffffffffffffffffffffffffffffff16826040516107a890612780565b5f6040518083038185875af1925050503d805f81146107e2576040519150601f19603f3d011682016040523d82523d5f602084013e6107e7565b606091505b505090508061082b576040517f08c379a0000000000000000000000000000000000000000000000000000000008152600401610822906127de565b60405180910390fd5b3373ffffffffffffffffffffffffffffffffffffffff167f7fcf532c15f0a6db0bd6d0e038bea71d30d808c7d98cb3bf7268a95bf5081b65836040516108719190611fa0565b60405180910390a25050610883611b49565b565b61088d611b63565b6108965f611bea565b565b5f5f84849050036108d5576040517f0d5003f300000000000000000000000000000000000000000000000000000000815260040160405180910390fd5b5f340361090e576040517f7c946ed700000000000000000000000000000000000000000000000000000000815260040160405180910390fd5b5f8203610947576040517f7616640100000000000000000000000000000000000000000000000000000000815260040160405180910390fd5b60025f815480929190610959906127fc565b9190505590506040518060a0016040528085858080601f0160208091040260200160405190810160405280939291908181526020018383808284375f81840152601f19601f82011690508083019250505050505050815260200134815260200183426109c59190612720565b81526020013373ffffffffffffffffffffffffffffffffffffffff1681526020015f151581525060015f8381526020019081526020015f205f820151815f019081610a109190612a6d565b5060208201518160010155604082015181600201556060820151816003015f6101000a81548173ffffffffffffffffffffffffffffffffffffffff021916908373ffffffffffffffffffffffffffffffffffffffff16021790555060808201518160030160146101000a81548160ff0219169083151502179055509050503373ffffffffffffffffffffffffffffffffffffffff16817fef6e6cdc1995ad8d47075ab3d22b04d4db5383ffc14b96c6a3a0f38bd9a0f9148686348742610ad69190612720565b604051610ae69493929190612b76565b60405180910390a39392505050565b610afd611b63565b8060065f8473ffffffffffffffffffffffffffffffffffffffff1673ffffffffffffffffffffffffffffffffffffffff1681526020019081526020015f205f6101000a81548160ff0219169083151502179055508173ffffffffffffffffffffffffffffffffffffffff167fd8ea402e95478feee1bea3f652c970c98c456281ae29a9987918e9e8b6754bb482604051610b97919061260b565b60405180910390a25050565b5f5f5f9054906101000a900473ffffffffffffffffffffffffffffffffffffffff16905090565b5f5f5f5f5f60075f8773ffffffffffffffffffffffffffffffffffffffff1673ffffffffffffffffffffffffffffffffffffffff1681526020019081526020015f2090505f816003015403610c2b575f5f5f5f945094509450945050610c75565b8060030154815f0154610c3e9190612be1565b81600301548260010154610c529190612be1565b82600301548360020154610c669190612be1565b83600301549450945094509450505b9193509193565b6003602052815f5260405f20602052805f5260405f205f91509150505481565b6001602052805f5260405f205f91509050805f018054610cbb9061289d565b80601f0160208091040260200160405190810160405280929190818152602001828054610ce79061289d565b8015610d325780601f10610d0957610100808354040283529160200191610d32565b820191905f5260205f20905b815481529060010190602001808311610d1557829003601f168201915b505050505090806001015490806002015490806003015f9054906101000a900473ffffffffffffffffffffffffffffffffffffffff16908060030160149054906101000a900460ff16905085565b610d88611d41565b610d90611d69565b6040518061010001604052806040518060400160405280601281526020017f5265736f6c7574696f6e205175616c697479000000000000000000000000000081525081526020016040518060400160405280600e81526020017f536f75726365205175616c69747900000000000000000000000000000000000081525081526020016040518060400160405280600e81526020017f416e616c7973697320446570746800000000000000000000000000000000000081525081526020016040518060400160405280601181526020017f526561736f6e696e6720436c617269747900000000000000000000000000000081525081526020016040518060400160405280601181526020017f45766964656e636520537472656e67746800000000000000000000000000000081525081526020016040518060400160405280600e81526020017f426961732041776172656e65737300000000000000000000000000000000000081525081526020016040518060400160405280600a81526020017f54696d656c696e6573730000000000000000000000000000000000000000000081525081526020016040518060400160405280600d81526020017f436f6c6c61626f726174696f6e00000000000000000000000000000000000000815250815250915060405180610100016040528060148152602001600f8152602001600f8152602001600f8152602001600a8152602001600a8152602001600a8152602001600581525090509091565b6007602052805f5260405f205f91509050805f0154908060010154908060020154908060030154905084565b610ff18161140c565b61103257806040517f5404ee680000000000000000000000000000000000000000000000000000000081526004016110299190611fa0565b60405180910390fd5b60085434101561107d57346008546040517f9be9d80a000000000000000000000000000000000000000000000000000000008152600401611074929190612c11565b60405180910390fd5b5f60035f8381526020019081526020015f205f3373ffffffffffffffffffffffffffffffffffffffff1673ffffffffffffffffffffffffffffffffffffffff1681526020019081526020015f205411156111105780336040517f682bdbac000000000000000000000000000000000000000000000000000000008152600401611107929190612c38565b60405180910390fd5b3460035f8381526020019081526020015f205f3373ffffffffffffffffffffffffffffffffffffffff1673ffffffffffffffffffffffffffffffffffffffff1681526020019081526020015f208190555060045f8281526020019081526020015f2033908060018154018082558091505060019003905f5260205f20015f9091909190916101000a81548173ffffffffffffffffffffffffffffffffffffffff021916908373ffffffffffffffffffffffffffffffffffffffff1602179055503373ffffffffffffffffffffffffffffffffffffffff16817fe9416adbb49f7917f41bbacee39dc20b227af6f03576494e40dfd5be476effe0346040516112179190611fa0565b60405180910390a350565b600a81565b6006602052805f5260405f205f915054906101000a900460ff1681565b61124c611d8c565b60015f8381526020019081526020015f206040518060a00160405290815f820180546112779061289d565b80601f01602080910402602001604051908101604052809291908181526020018280546112a39061289d565b80156112ee5780601f106112c5576101008083540402835291602001916112ee565b820191905f5260205f20905b8154815290600101906020018083116112d157829003601f168201915b505050505081526020016001820154815260200160028201548152602001600382015f9054906101000a900473ffffffffffffffffffffffffffffffffffffffff1673ffffffffffffffffffffffffffffffffffffffff1673ffffffffffffffffffffffffffffffffffffffff1681526020016003820160149054906101000a900460ff1615151515815250509050919050565b60025481565b611390611b63565b5f73ffffffffffffffffffffffffffffffffffffffff168173ffffffffffffffffffffffffffffffffffffffff1603611400575f6040517f1e4fbdf70000000000000000000000000000000000000000000000000000000081526004016113f791906122cf565b60405180910390fd5b61140981611bea565b50565b5f5f60015f8481526020019081526020015f2090505f816002015411801561144357508060030160149054906101000a900460ff16155b8015611453575080600201544211155b915050919050565b5f60015f8981526020019081526020015f2090508060030160149054906101000a900460ff16156114c357876040517fe1ba032d0000000000000000000000000000000000000000000000000000000081526004016114ba9190611fa0565b60405180910390fd5b5f81600201540361150b57876040517f5404ee680000000000000000000000000000000000000000000000000000000081526004016115029190611fa0565b60405180910390fd5b600a87879050111561155a5786869050600a6040517f7494c592000000000000000000000000000000000000000000000000000000008152600401611551929190612c11565b60405180910390fd5b8484905087879050141580611581575060038787905061157a9190612c5f565b8383905014155b156115d0578686905085859050848490506040517fd3f639860000000000000000000000000000000000000000000000000000000081526004016115c793929190612ca0565b60405180910390fd5b60065f3373ffffffffffffffffffffffffffffffffffffffff1673ffffffffffffffffffffffffffffffffffffffff1681526020019081526020015f205f9054906101000a900460ff1661165b57336040517f8e4a23d600000000000000000000000000000000000000000000000000000000815260040161165291906122cf565b60405180910390fd5b5f5b87879050811015611755575f60035f8b81526020019081526020015f205f8a8a8581811061168e5761168d6126c6565b5b90506020020160208101906116a39190611f66565b73ffffffffffffffffffffffffffffffffffffffff1673ffffffffffffffffffffffffffffffffffffffff1681526020019081526020015f20540361174857888888838181106116f6576116f56126c6565b5b905060200201602081019061170b9190611f66565b6040517fb812feb300000000000000000000000000000000000000000000000000000000815260040161173f929190612c38565b60405180910390fd5b808060010191505061165d565b505050505050505050565b5f60015f8881526020019081526020015f206001015490505f5b868690508110156118f2575f878783818110611799576117986126c6565b5b90506020020160208101906117ae9190611f66565b90505f848787858181106117c5576117c46126c6565b5b90506020020135856117d79190612c5f565b6117e19190612be1565b90505f60035f8c81526020019081526020015f205f8473ffffffffffffffffffffffffffffffffffffffff1673ffffffffffffffffffffffffffffffffffffffff1681526020019081526020015f20549050808261183f9190612720565b60055f8573ffffffffffffffffffffffffffffffffffffffff1673ffffffffffffffffffffffffffffffffffffffff1681526020019081526020015f205f82825461188a9190612720565b925050819055505f60035f8d81526020019081526020015f205f8573ffffffffffffffffffffffffffffffffffffffff1673ffffffffffffffffffffffffffffffffffffffff1681526020019081526020015f2081905550505050808060010191505061177a565b5050505050505050565b5f5b84849050811015611b20575f85858381811061191d5761191c6126c6565b5b90506020020160208101906119329190611f66565b90505f6003836119429190612c5f565b90505f60075f8473ffffffffffffffffffffffffffffffffffffffff1673ffffffffffffffffffffffffffffffffffffffff1681526020019081526020015f209050858583818110611997576119966126c6565b5b90506020020160208101906119ac9190612d0b565b60ff16815f015f8282546119c09190612720565b9250508190555085856001846119d69190612720565b8181106119e6576119e56126c6565b5b90506020020160208101906119fb9190612d0b565b60ff16816001015f828254611a109190612720565b925050819055508585600284611a269190612720565b818110611a3657611a356126c6565b5b9050602002016020810190611a4b9190612d0b565b60ff16816002015f828254611a609190612720565b92505081905550806003015f815480929190611a7b906127fc565b91905055508273ffffffffffffffffffffffffffffffffffffffff167f7422c3445cfc7c8b4138fbbf7c7fcf8c9f6a3adfcc49af7c8975676a27e4aa608260030154835f0154611acb9190612be1565b83600301548460010154611adf9190612be1565b84600301548560020154611af39190612be1565b8560030154604051611b0894939291906122e8565b60405180910390a250505080806001019150506118fe565b5050505050565b611b2f611cab565b6002611b41611b3c611cec565b611d15565b5f0181905550565b6001611b5b611b56611cec565b611d15565b5f0181905550565b611b6b611d1e565b73ffffffffffffffffffffffffffffffffffffffff16611b89610ba3565b73ffffffffffffffffffffffffffffffffffffffff1614611be857611bac611d1e565b6040517f118cdaa7000000000000000000000000000000000000000000000000000000008152600401611bdf91906122cf565b60405180910390fd5b565b5f5f5f9054906101000a900473ffffffffffffffffffffffffffffffffffffffff169050815f5f6101000a81548173ffffffffffffffffffffffffffffffffffffffff021916908373ffffffffffffffffffffffffffffffffffffffff1602179055508173ffffffffffffffffffffffffffffffffffffffff168173ffffffffffffffffffffffffffffffffffffffff167f8be0079c531659141344cd1fd0a4f28419497f9722a3daafe3b4186f6b6457e060405160405180910390a35050565b611cb3611d25565b15611cea576040517f3ee5aeb500000000000000000000000000000000000000000000000000000000815260040160405180910390fd5b565b5f7f9b779b17422d0df92223018b32b4d1fa46e071723d6817e2486d003becc55f005f1b905090565b5f819050919050565b5f33905090565b5f6002611d38611d33611cec565b611d15565b5f015414905090565b6040518061010001604052806008905b6060815260200190600190039081611d515790505090565b604051806101000160405280600890602082028036833780820191505090505090565b6040518060a00160405280606081526020015f81526020015f81526020015f73ffffffffffffffffffffffffffffffffffffffff1681526020015f151581525090565b5f5ffd5b5f5ffd5b5f819050919050565b611de981611dd7565b8114611df3575f5ffd5b50565b5f81359050611e0481611de0565b92915050565b5f60208284031215611e1f57611e1e611dcf565b5b5f611e2c84828501611df6565b91505092915050565b5f81519050919050565b5f82825260208201905092915050565b5f819050602082019050919050565b5f73ffffffffffffffffffffffffffffffffffffffff82169050919050565b5f611e8782611e5e565b9050919050565b611e9781611e7d565b82525050565b5f611ea88383611e8e565b60208301905092915050565b5f602082019050919050565b5f611eca82611e35565b611ed48185611e3f565b9350611edf83611e4f565b805f5b83811015611f0f578151611ef68882611e9d565b9750611f0183611eb4565b925050600181019050611ee2565b5085935050505092915050565b5f6020820190508181035f830152611f348184611ec0565b905092915050565b611f4581611e7d565b8114611f4f575f5ffd5b50565b5f81359050611f6081611f3c565b92915050565b5f60208284031215611f7b57611f7a611dcf565b5b5f611f8884828501611f52565b91505092915050565b611f9a81611dd7565b82525050565b5f602082019050611fb35f830184611f91565b92915050565b5f5ffd5b5f5ffd5b5f5ffd5b5f5f83601f840112611fda57611fd9611fb9565b5b8235905067ffffffffffffffff811115611ff757611ff6611fbd565b5b60208301915083602082028301111561201357612012611fc1565b5b9250929050565b5f5f83601f84011261202f5761202e611fb9565b5b8235905067ffffffffffffffff81111561204c5761204b611fbd565b5b60208301915083602082028301111561206857612067611fc1565b5b9250929050565b5f5f83601f84011261208457612083611fb9565b5b8235905067ffffffffffffffff8111156120a1576120a0611fbd565b5b6020830191508360208202830111156120bd576120bc611fc1565b5b9250929050565b5f8115159050919050565b6120d8816120c4565b81146120e2575f5ffd5b50565b5f813590506120f3816120cf565b92915050565b5f5f5f5f5f5f5f5f60a0898b03121561211557612114611dcf565b5b5f6121228b828c01611df6565b985050602089013567ffffffffffffffff81111561214357612142611dd3565b5b61214f8b828c01611fc5565b9750975050604089013567ffffffffffffffff81111561217257612171611dd3565b5b61217e8b828c0161201a565b9550955050606089013567ffffffffffffffff8111156121a1576121a0611dd3565b5b6121ad8b828c0161206f565b935093505060806121c08b828c016120e5565b9150509295985092959890939650565b5f5f83601f8401126121e5576121e4611fb9565b5b8235905067ffffffffffffffff81111561220257612201611fbd565b5b60208301915083600182028301111561221e5761221d611fc1565b5b9250929050565b5f5f5f6040848603121561223c5761223b611dcf565b5b5f84013567ffffffffffffffff81111561225957612258611dd3565b5b612265868287016121d0565b9350935050602061227886828701611df6565b9150509250925092565b5f5f6040838503121561229857612297611dcf565b5b5f6122a585828601611f52565b92505060206122b6858286016120e5565b9150509250929050565b6122c981611e7d565b82525050565b5f6020820190506122e25f8301846122c0565b92915050565b5f6080820190506122fb5f830187611f91565b6123086020830186611f91565b6123156040830185611f91565b6123226060830184611f91565b95945050505050565b5f5f6040838503121561234157612340611dcf565b5b5f61234e85828601611df6565b925050602061235f85828601611f52565b9150509250929050565b5f81519050919050565b5f82825260208201905092915050565b8281835e5f83830152505050565b5f601f19601f8301169050919050565b5f6123ab82612369565b6123b58185612373565b93506123c5818560208601612383565b6123ce81612391565b840191505092915050565b6123e2816120c4565b82525050565b5f60a0820190508181035f83015261240081886123a1565b905061240f6020830187611f91565b61241c6040830186611f91565b61242960608301856122c0565b61243660808301846123d9565b9695505050505050565b5f60089050919050565b5f81905092915050565b5f819050919050565b5f82825260208201905092915050565b5f61247782612369565b612481818561245d565b9350612491818560208601612383565b61249a81612391565b840191505092915050565b5f6124b0838361246d565b905092915050565b5f602082019050919050565b5f6124ce82612440565b6124d8818561244a565b9350836020820285016124ea85612454565b805f5b85811015612525578484038952815161250685826124a5565b9450612511836124b8565b925060208a019950506001810190506124ed565b50829750879550505050505092915050565b5f60089050919050565b5f81905092915050565b5f819050919050565b61255d81611dd7565b82525050565b5f61256e8383612554565b60208301905092915050565b5f602082019050919050565b61258f81612537565b6125998184612541565b92506125a48261254b565b805f5b838110156125d45781516125bb8782612563565b96506125c68361257a565b9250506001810190506125a7565b505050505050565b5f610120820190508181035f8301526125f581856124c4565b90506126046020830184612586565b9392505050565b5f60208201905061261e5f8301846123d9565b92915050565b61262d816120c4565b82525050565b5f60a083015f8301518482035f86015261264d828261246d565b91505060208301516126626020860182612554565b5060408301516126756040860182612554565b5060608301516126886060860182611e8e565b50608083015161269b6080860182612624565b508091505092915050565b5f6020820190508181035f8301526126be8184612633565b905092915050565b7f4e487b71000000000000000000000000000000000000000000000000000000005f52603260045260245ffd5b7f4e487b71000000000000000000000000000000000000000000000000000000005f52601160045260245ffd5b5f61272a82611dd7565b915061273583611dd7565b925082820190508082111561274d5761274c6126f3565b5b92915050565b5f81905092915050565b50565b5f61276b5f83612753565b91506127768261275d565b5f82019050919050565b5f61278a82612760565b9150819050919050565b7f5472616e73666572206661696c656400000000000000000000000000000000005f82015250565b5f6127c8600f83612373565b91506127d382612794565b602082019050919050565b5f6020820190508181035f8301526127f5816127bc565b9050919050565b5f61280682611dd7565b91507fffffffffffffffffffffffffffffffffffffffffffffffffffffffffffffffff8203612838576128376126f3565b5b600182019050919050565b7f4e487b71000000000000000000000000000000000000000000000000000000005f52604160045260245ffd5b7f4e487b71000000000000000000000000000000000000000000000000000000005f52602260045260245ffd5b5f60028204905060018216806128b457607f821691505b6020821081036128c7576128c6612870565b5b50919050565b5f819050815f5260205f209050919050565b5f6020601f8301049050919050565b5f82821b905092915050565b5f600883026129297fffffffffffffffffffffffffffffffffffffffffffffffffffffffffffffffff826128ee565b61293386836128ee565b95508019841693508086168417925050509392505050565b5f819050919050565b5f61296e61296961296484611dd7565b61294b565b611dd7565b9050919050565b5f819050919050565b61298783612954565b61299b61299382612975565b8484546128fa565b825550505050565b5f5f905090565b6129b26129a3565b6129bd81848461297e565b505050565b5b818110156129e0576129d55f826129aa565b6001810190506129c3565b5050565b601f821115612a25576129f6816128cd565b6129ff846128df565b81016020851015612a0e578190505b612a22612a1a856128df565b8301826129c2565b50505b505050565b5f82821c905092915050565b5f612a455f1984600802612a2a565b1980831691505092915050565b5f612a5d8383612a36565b9150826002028217905092915050565b612a7682612369565b67ffffffffffffffff811115612a8f57612a8e612843565b5b612a99825461289d565b612aa48282856129e4565b5f60209050601f831160018114612ad5575f8415612ac3578287015190505b612acd8582612a52565b865550612b34565b601f198416612ae3866128cd565b5f5b82811015612b0a57848901518255600182019150602085019450602081019050612ae5565b86831015612b275784890151612b23601f891682612a36565b8355505b6001600288020188555050505b505050505050565b828183375f83830152505050565b5f612b558385612373565b9350612b62838584612b3c565b612b6b83612391565b840190509392505050565b5f6060820190508181035f830152612b8f818688612b4a565b9050612b9e6020830185611f91565b612bab6040830184611f91565b95945050505050565b7f4e487b71000000000000000000000000000000000000000000000000000000005f52601260045260245ffd5b5f612beb82611dd7565b9150612bf683611dd7565b925082612c0657612c05612bb4565b5b828204905092915050565b5f604082019050612c245f830185611f91565b612c316020830184611f91565b9392505050565b5f604082019050612c4b5f830185611f91565b612c5860208301846122c0565b9392505050565b5f612c6982611dd7565b9150612c7483611dd7565b9250828202612c8281611dd7565b91508282048414831517612c9957612c986126f3565b5b5092915050565b5f606082019050612cb35f830186611f91565b612cc06020830185611f91565b612ccd6040830184611f91565b949350505050565b5f60ff82169050919050565b612cea81612cd5565b8114612cf4575f5ffd5b50565b5f81359050612d0581612ce1565b92915050565b5f60208284031215612d2057612d1f611dcf565b5b5f612d2d84828501612cf7565b9150509291505056fea2646970667358221220563558dd2c1a5c60158b51ea0b61645a367e6d4b9f9059b9e07422311571eb4164736f6c634300081e0033","linkReferences":{}},"methodIdentifiers":{"MAX_WORKERS()":"d1026018","authorizedResolvers(address)":"d794d2d9","balances(address)":"27e235e3","createMarket(string,uint256)":"883c84c1","getMarket(uint256)":"eb44fdd3","getMarketWorkers(uint256)":"04402c1b","getReputation(address)":"9c89a0e2","getScoringCriteria()":"b85f68ec","isMarketActive(uint256)":"f849f69e","joinMarket(uint256)":"caca6ff5","marketCount()":"ec979082","markets(uint256)":"b1283e77","minStake()":"375b3c0a","owner()":"8da5cb5b","renounceOwnership()":"715018a6","reputation(address)":"b9f79451","resolveMarket(uint256,address[],uint256[],uint8[],bool)":"2e5d2f50","setAuthorizedResolver(address,bool)":"8a948217","stakes(uint256,address)":"a9a3bba4","transferOwnership(address)":"f2fde38b","withdraw()":"3ccfd60b"},"id":5}