{"abi":[{"type":"constructor","inputs":[],"stateMutability":"nonpayable"},{"type":"function","name":"MAX_WORKERS","inputs":[],"outputs":[{"name":"","type":"uint256","internalType":"uint256"}],"stateMutability":"view"},{"type":"function","name":"authorizedResolvers","inputs":[{"name":"","type":"address","internalType":"address"}],"outputs":[{"name":"","type":"bool","internalType":"bool"}],"stateMutability":"view"},{"type":"function","name":"balances","inputs":[{"name":"","type":"address","internalType":"address"}],"outputs":[{"name":"","type":"uint256","internalType":"uint256"}],"stateMutability":"view"},{"type":"function","name":"createMarket","inputs":[{"name":"question","type":"string","internalType":"string"},{"name":"duration","type":"uint256","internalType":"uint256"}],"outputs":[{"name":"marketId","type":"uint256","internalType":"uint256"}],"stateMutability":"payable"},{"type":"function","name":"getMarket","inputs":[{"name":"marketId","type":"uint256","internalType":"uint256"}],"outputs":[{"name":"","type":"tuple","internalType":"struct CREsolverMarket.Market","components":[{"name":"question","type":"string","internalType":"string"},{"name":"rewardPool","type":"uint256","internalType":"uint256"},{"name":"deadline","type":"uint256","internalType":"uint256"},{"name":"creator","type":"address","internalType":"address"},{"name":"resolved","type":"bool","internalType":"bool"}]}],"stateMutability":"view"},{"type":"function","name":"getMarketWorkers","inputs":[{"name":"marketId","type":"uint256","internalType":"uint256"}],"outputs":[{"name":"","type":"address[]","internalType":"address[]"}],"stateMutability":"view"},{"type":"function","name":"getReputation","inputs":[{"name":"worker","type":"address","internalType":"address"}],"outputs":[{"name":"resQuality","type":"uint256","internalType":"uint256"},{"name":"srcQuality","type":"uint256","internalType":"uint256"},{"name":"analysisDepth","type":"uint256","internalType":"uint256"},{"name":"count","type":"uint256","internalType":"uint256"}],"stateMutability":"view"},{"type":"function","name":"getScoringCriteria","inputs":[],"outputs":[{"name":"names","type":"string[8]","internalType":"string[8]"},{"name":"weights","type":"uint256[8]","internalType":"uint256[8]"}],"stateMutability":"pure"},{"type":"function","name":"isMarketActive","inputs":[{"name":"marketId","type":"uint256","internalType":"uint256"}],"outputs":[{"name":"","type":"bool","internalType":"bool"}],"stateMutability":"view"},{"type":"function","name":"joinMarket","inputs":[{"name":"marketId","type":"uint256","internalType":"uint256"}],"outputs":[],"stateMutability":"payable"},{"type":"function","name":"marketCount","inputs":[],"outputs":[{"name":"","type":"uint256","internalType":"uint256"}],"stateMutability":"view"},{"type":"function","name":"markets","inputs":[{"name":"","type":"uint256","internalType":"uint256"}],"outputs":[{"name":"question","type":"string","internalType":"string"},{"name":"rewardPool","type":"uint256","internalType":"uint256"},{"name":"deadline","type":"uint256","internalType":"uint256"},{"name":"creator","type":"address","internalType":"address"},{"name":"resolved","type":"bool","internalType":"bool"}],"stateMutability":"view"},{"type":"function","name":"minStake","inputs":[],"outputs":[{"name":"","type":"uint256","internalType":"uint256"}],"stateMutability":"view"},{"type":"function","name":"owner","inputs":[],"outputs":[{"name":"","type":"address","internalType":"address"}],"stateMutability":"view"},{"type":"function","name":"renounceOwnership","inputs":[],"outputs":[],"stateMutability":"nonpayable"},{"type":"function","name":"reputation","inputs":[{"name":"","type":"address","internalType":"address"}],"outputs":[{"name":"resQualitySum","type":"uint256","internalType":"uint256"},{"name":"srcQualitySum","type":"uint256","internalType":"uint256"},{"name":"analysisDepthSum","type":"uint256","internalType":"uint256"},{"name":"count","type":"uint256","internalType":"uint256"}],"stateMutability":"view"},{"type":"function","name":"requestResolution","inputs":[{"name":"marketId","type":"uint256","internalType":"uint256"}],"outputs":[],"stateMutability":"nonpayable"},{"type":"function","name":"resolveMarket","inputs":[{"name":"marketId","type":"uint256","internalType":"uint256"},{"name":"workers","type":"address[]","internalType":"address[]"},{"name":"weights","type":"uint256[]","internalType":"uint256[]"},{"name":"dimScores","type":"uint8[]","internalType":"uint8[]"},{"name":"resolution","type":"bool","internalType":"bool"}],"outputs":[],"stateMutability":"nonpayable"},{"type":"function","name":"setAuthorizedResolver","inputs":[{"name":"resolver","type":"address","internalType":"address"},{"name":"authorized","type":"bool","internalType":"bool"}],"outputs":[],"stateMutability":"nonpayable"},{"type":"function","name":"stakes","inputs":[{"name":"","type":"uint256","internalType":"uint256"},{"name":"","type":"address","internalType":"address"}],"outputs":[{"name":"","type":"uint256","internalType":"uint256"}],"stateMutability":"view"},{"type":"function","name":"transferOwnership","inputs":[{"name":"newOwner","type":"address","internalType":"address"}],"outputs":[],"stateMutability":"nonpayable"},{"type":"function","name":"withdraw","inputs":[],"outputs":[],"stateMutability":"nonpayable"},{"type":"event","name":"MarketCreated","inputs":[{"name":"marketId","type":"uint256","indexed":true,"internalType":"uint256"},{"name":"creator","type":"address","indexed":true,"internalType":"address"},{"name":"question","type":"string","indexed":false,"internalType":"string"},{"name":"rewardPool","type":"uint256","indexed":false,"internalType":"uint256"},{"name":"deadline","type":"uint256","indexed":false,"internalType":"uint256"}],"anonymous":false},{"type":"event","name":"MarketResolved","inputs":[{"name":"marketId","type":"uint256","indexed":true,"internalType":"uint256"},{"name":"resolver","type":"address","indexed":true,"internalType":"address"},{"name":"resolution","type":"bool","indexed":false,"internalType":"bool"}],"anonymous":false},{"type":"event","name":"OwnershipTransferred","inputs":[{"name":"previousOwner","type":"address","indexed":true,"internalType":"address"},{"name":"newOwner","type":"address","indexed":true,"internalType":"address"}],"anonymous":false},{"type":"event","name":"ReputationUpdated","inputs":[{"name":"worker","type":"address","indexed":true,"internalType":"address"},{"name":"resQuality","type":"uint256","indexed":false,"internalType":"uint256"},{"name":"srcQuality","type":"uint256","indexed":false,"internalType":"uint256"},{"name":"analysisDepth","type":"uint256","indexed":false,"internalType":"uint256"},{"name":"count","type":"uint256","indexed":false,"internalType":"uint256"}],"anonymous":false},{"type":"event","name":"ResolutionRequested","inputs":[{"name":"marketId","type":"uint256","indexed":true,"internalType":"uint256"},{"name":"question","type":"string","indexed":false,"internalType":"string"}],"anonymous":false},{"type":"event","name":"ResolverUpdated","inputs":[{"name":"resolver","type":"address","indexed":true,"internalType":"address"},{"name":"authorized","type":"bool","indexed":false,"internalType":"bool"}],"anonymous":false},{"type":"event","name":"Withdrawal","inputs":[{"name":"account","type":"address","indexed":true,"internalType":"address"},{"name":"amount","type":"uint256","indexed":false,"internalType":"uint256"}],"anonymous":false},{"type":"event","name":"WorkerJoined","inputs":[{"name":"marketId","type":"uint256","indexed":true,"internalType":"uint256"},{"name":"worker","type":"address","indexed":true,"internalType":"address"},{"name":"stake","type":"uint256","indexed":false,"internalType":"uint256"}],"anonymous":false},{"type":"error","name":"AlreadyJoined","inputs":[{"name":"marketId","type":"uint256","internalType":"uint256"},{"name":"worker","type":"address","internalType":"address"}]},{"type":"error","name":"AlreadyResolved","inputs":[{"name":"marketId","type":"uint256","internalType":"uint256"}]},{"type":"error","name":"ArrayMismatch","inputs":[{"name":"workersLen","type":"uint256","internalType":"uint256"},{"name":"weightsLen","type":"uint256","internalType":"uint256"},{"name":"scoresLen","type":"uint256","internalType":"uint256"}]},{"type":"error","name":"BelowMinStake","inputs":[{"name":"sent","type":"uint256","internalType":"uint256"},{"name":"required","type":"uint256","internalType":"uint256"}]},{"type":"error","name":"EmptyQuestion","inputs":[]},{"type":"error","name":"InvalidDuration","inputs":[]},{"type":"error","name":"MarketAlreadyResolved","inputs":[{"name":"marketId","type":"uint256","internalType":"uint256"}]},{"type":"error","name":"MarketDoesNotExist","inputs":[{"name":"marketId","type":"uint256","internalType":"uint256"}]},{"type":"error","name":"MarketNotActive","inputs":[{"name":"marketId","type":"uint256","internalType":"uint256"}]},{"type":"error","name":"NoBalance","inputs":[]},{"type":"error","name":"NotMarketCreator","inputs":[{"name":"marketId","type":"uint256","internalType":"uint256"},{"name":"caller","type":"address","internalType":"address"}]},{"type":"error","name":"OwnableInvalidOwner","inputs":[{"name":"owner","type":"address","internalType":"address"}]},{"type":"error","name":"OwnableUnauthorizedAccount","inputs":[{"name":"account","type":"address","internalType":"address"}]},{"type":"error","name":"ReentrancyGuardReentrantCall","inputs":[]},{"type":"error","name":"TooManyWorkers","inputs":[{"name":"count","type":"uint256","internalType":"uint256"},{"name":"max","type":"uint256","internalType":"uint256"}]},{"type":"error","name":"Unauthorized","inputs":[{"name":"caller","type":"address","internalType":"address"}]},{"type":"error","name":"UnregisteredWorker","inputs":[{"name":"marketId","type":"uint256","internalType":"uint256"},{"name":"worker","type":"address","internalType":"address"}]},{"type":"error","name":"ZeroValue","inputs":[]}],"bytecode":{"object":"0x6080604052662386f26fc1000060085534801561001a575f5ffd5b50335f73ffffffffffffffffffffffffffffffffffffffff168173ffffffffffffffffffffffffffffffffffffffff160361008c575f6040517f1e4fbdf700000000000000000000000000000000000000000000000000000000815260040161008391906101f7565b60405180910390fd5b61009b816100c560201b60201c565b5060016100ba6100af61018660201b60201c565b6101af60201b60201c565b5f0181905550610210565b5f5f5f9054906101000a900473ffffffffffffffffffffffffffffffffffffffff169050815f5f6101000a81548173ffffffffffffffffffffffffffffffffffffffff021916908373ffffffffffffffffffffffffffffffffffffffff1602179055508173ffffffffffffffffffffffffffffffffffffffff168173ffffffffffffffffffffffffffffffffffffffff167f8be0079c531659141344cd1fd0a4f28419497f9722a3daafe3b4186f6b6457e060405160405180910390a35050565b5f7f9b779b17422d0df92223018b32b4d1fa46e071723d6817e2486d003becc55f005f1b905090565b5f819050919050565b5f73ffffffffffffffffffffffffffffffffffffffff82169050919050565b5f6101e1826101b8565b9050919050565b6101f1816101d7565b82525050565b5f60208201905061020a5f8301846101e8565b92915050565b6130048061021d5f395ff3fe608060405260043610610134575f3560e01c8063a9a3bba4116100aa578063d10260181161006e578063d102601814610419578063d794d2d914610443578063eb44fdd31461047f578063ec979082146104bb578063f2fde38b146104e5578063f849f69e1461050d57610134565b8063a9a3bba414610317578063b1283e7714610353578063b85f68ec14610393578063b9f79451146103be578063caca6ff5146103fd57610134565b8063416a4f19116100fc578063416a4f1914610218578063715018a614610240578063883c84c1146102565780638a948217146102865780638da5cb5b146102ae5780639c89a0e2146102d857610134565b806304402c1b1461013857806327e235e3146101745780632e5d2f50146101b0578063375b3c0a146101d85780633ccfd60b14610202575b5f5ffd5b348015610143575f5ffd5b5061015e60048036038101906101599190612001565b610549565b60405161016b9190612113565b60405180910390f35b34801561017f575f5ffd5b5061019a6004803603810190610195919061215d565b6105e5565b6040516101a79190612197565b60405180910390f35b3480156101bb575f5ffd5b506101d660048036038101906101d191906122f0565b6105fa565b005b3480156101e3575f5ffd5b506101ec6106ec565b6040516101f99190612197565b60405180910390f35b34801561020d575f5ffd5b506102166106f2565b005b348015610223575f5ffd5b5061023e60048036038101906102399190612001565b6108b8565b005b34801561024b575f5ffd5b50610254610a7c565b005b610270600480360381019061026b919061241c565b610a8f565b60405161027d9190612197565b60405180910390f35b348015610291575f5ffd5b506102ac60048036038101906102a79190612479565b610cec565b005b3480156102b9575f5ffd5b506102c2610d9a565b6040516102cf91906124c6565b60405180910390f35b3480156102e3575f5ffd5b506102fe60048036038101906102f9919061215d565b610dc1565b60405161030e94939291906124df565b60405180910390f35b348015610322575f5ffd5b5061033d60048036038101906103389190612522565b610e73565b60405161034a9190612197565b60405180910390f35b34801561035e575f5ffd5b5061037960048036038101906103749190612001565b610e93565b60405161038a9594939291906125df565b60405180910390f35b34801561039e575f5ffd5b506103a7610f77565b6040516103b59291906127d3565b60405180910390f35b3480156103c9575f5ffd5b506103e460048036038101906103df919061215d565b6111b3565b6040516103f494939291906124df565b60405180910390f35b61041760048036038101906104129190612001565b6111df565b005b348015610424575f5ffd5b5061042d611419565b60405161043a9190612197565b60405180910390f35b34801561044e575f5ffd5b506104696004803603810190610464919061215d565b61141e565b6040516104769190612802565b60405180910390f35b34801561048a575f5ffd5b506104a560048036038101906104a09190612001565b61143b565b6040516104b2919061289d565b60405180910390f35b3480156104c6575f5ffd5b506104cf611579565b6040516104dc9190612197565b60405180910390f35b3480156104f0575f5ffd5b5061050b6004803603810190610506919061215d565b61157f565b005b348015610518575f5ffd5b50610533600480360381019061052e9190612001565b611603565b6040516105409190612802565b60405180910390f35b606060045f8381526020019081526020015f208054806020026020016040519081016040528092919081815260200182805480156105d957602002820191905f5260205f20905b815f9054906101000a900473ffffffffffffffffffffffffffffffffffffffff1673ffffffffffffffffffffffffffffffffffffffff1681526020019060010190808311610590575b50505050509050919050565b6005602052805f5260405f205f915090505481565b61060988888888888888611652565b5f5f5b8888905081101561064b5786868281811061062a576106296128bd565b5b905060200201358261063c9190612917565b9150808060010191505061060c565b5061065a898989898986611957565b61066688888686611af3565b6001805f8b81526020019081526020015f2060030160146101000a81548160ff0219169083151502179055503373ffffffffffffffffffffffffffffffffffffffff16897fdd895f8f5d520ca7db3fc8259b53d471f0b9c249e49b40c20278f880824e5bb2846040516106d99190612802565b60405180910390a3505050505050505050565b60085481565b6106fa611d1e565b5f60055f3373ffffffffffffffffffffffffffffffffffffffff1673ffffffffffffffffffffffffffffffffffffffff1681526020019081526020015f205490505f8103610774576040517fc2caa2a600000000000000000000000000000000000000000000000000000000815260040160405180910390fd5b5f60055f3373ffffffffffffffffffffffffffffffffffffffff1673ffffffffffffffffffffffffffffffffffffffff1681526020019081526020015f20819055505f3373ffffffffffffffffffffffffffffffffffffffff16826040516107db90612977565b5f6040518083038185875af1925050503d805f8114610815576040519150601f19603f3d011682016040523d82523d5f602084013e61081a565b606091505b505090508061085e576040517f08c379a0000000000000000000000000000000000000000000000000000000008152600401610855906129d5565b60405180910390fd5b3373ffffffffffffffffffffffffffffffffffffffff167f7fcf532c15f0a6db0bd6d0e038bea71d30d808c7d98cb3bf7268a95bf5081b65836040516108a49190612197565b60405180910390a250506108b6611d40565b565b5f60015f8381526020019081526020015f2090505f81600201540361091457816040517f7ff80d3800000000000000000000000000000000000000000000000000000000815260040161090b9190612197565b60405180910390fd5b8060030160149054906101000a900460ff161561096857816040517fed5d23e100000000000000000000000000000000000000000000000000000000815260040161095f9190612197565b60405180910390fd5b3373ffffffffffffffffffffffffffffffffffffffff16816003015f9054906101000a900473ffffffffffffffffffffffffffffffffffffffff1673ffffffffffffffffffffffffffffffffffffffff16141580156109fa57506109ca610d9a565b73ffffffffffffffffffffffffffffffffffffffff163373ffffffffffffffffffffffffffffffffffffffff1614155b15610a3e5781336040517f26ee7312000000000000000000000000000000000000000000000000000000008152600401610a359291906129f3565b60405180910390fd5b817ff6ab5c2ebaf7695b7fae6b838894cc8d071250c0e84f2fb3eab2b642489802c2825f01604051610a709190612b0a565b60405180910390a25050565b610a84611d5a565b610a8d5f611de1565b565b5f5f8484905003610acc576040517f0d5003f300000000000000000000000000000000000000000000000000000000815260040160405180910390fd5b5f3403610b05576040517f7c946ed700000000000000000000000000000000000000000000000000000000815260040160405180910390fd5b5f8203610b3e576040517f7616640100000000000000000000000000000000000000000000000000000000815260040160405180910390fd5b60025f815480929190610b5090612b2a565b9190505590506040518060a0016040528085858080601f0160208091040260200160405190810160405280939291908181526020018383808284375f81840152601f19601f8201169050808301925050505050505081526020013481526020018342610bbc9190612917565b81526020013373ffffffffffffffffffffffffffffffffffffffff1681526020015f151581525060015f8381526020019081526020015f205f820151815f019081610c079190612d2c565b5060208201518160010155604082015181600201556060820151816003015f6101000a81548173ffffffffffffffffffffffffffffffffffffffff021916908373ffffffffffffffffffffffffffffffffffffffff16021790555060808201518160030160146101000a81548160ff0219169083151502179055509050503373ffffffffffffffffffffffffffffffffffffffff16817fef6e6cdc1995ad8d47075ab3d22b04d4db5383ffc14b96c6a3a0f38bd9a0f9148686348742610ccd9190612917565b604051610cdd9493929190612e35565b60405180910390a39392505050565b610cf4611d5a565b8060065f8473ffffffffffffffffffffffffffffffffffffffff1673ffffffffffffffffffffffffffffffffffffffff1681526020019081526020015f205f6101000a81548160ff0219169083151502179055508173ffffffffffffffffffffffffffffffffffffffff167fd8ea402e95478feee1bea3f652c970c98c456281ae29a9987918e9e8b6754bb482604051610d8e9190612802565b60405180910390a25050565b5f5f5f9054906101000a900473ffffffffffffffffffffffffffffffffffffffff16905090565b5f5f5f5f5f60075f8773ffffffffffffffffffffffffffffffffffffffff1673ffffffffffffffffffffffffffffffffffffffff1681526020019081526020015f2090505f816003015403610e22575f5f5f5f945094509450945050610e6c565b8060030154815f0154610e359190612ea0565b81600301548260010154610e499190612ea0565b82600301548360020154610e5d9190612ea0565b83600301549450945094509450505b9193509193565b6003602052815f5260405f20602052805f5260405f205f91509150505481565b6001602052805f5260405f205f91509050805f018054610eb290612a47565b80601f0160208091040260200160405190810160405280929190818152602001828054610ede90612a47565b8015610f295780601f10610f0057610100808354040283529160200191610f29565b820191905f5260205f20905b815481529060010190602001808311610f0c57829003601f168201915b505050505090806001015490806002015490806003015f9054906101000a900473ffffffffffffffffffffffffffffffffffffffff16908060030160149054906101000a900460ff16905085565b610f7f611f38565b610f87611f60565b6040518061010001604052806040518060400160405280601281526020017f5265736f6c7574696f6e205175616c697479000000000000000000000000000081525081526020016040518060400160405280600e81526020017f536f75726365205175616c69747900000000000000000000000000000000000081525081526020016040518060400160405280600e81526020017f416e616c7973697320446570746800000000000000000000000000000000000081525081526020016040518060400160405280601181526020017f526561736f6e696e6720436c617269747900000000000000000000000000000081525081526020016040518060400160405280601181526020017f45766964656e636520537472656e67746800000000000000000000000000000081525081526020016040518060400160405280600e81526020017f426961732041776172656e65737300000000000000000000000000000000000081525081526020016040518060400160405280600a81526020017f54696d656c696e6573730000000000000000000000000000000000000000000081525081526020016040518060400160405280600d81526020017f436f6c6c61626f726174696f6e00000000000000000000000000000000000000815250815250915060405180610100016040528060148152602001600f8152602001600f8152602001600f8152602001600a8152602001600a8152602001600a8152602001600581525090509091565b6007602052805f5260405f205f91509050805f0154908060010154908060020154908060030154905084565b6111e881611603565b61122957806040517f5404ee680000000000000000000000000000000000000000000000000000000081526004016112209190612197565b60405180910390fd5b60085434101561127457346008546040517f9be9d80a00000000000000000000000000000000000000000000000000000000815260040161126b929190612ed0565b60405180910390fd5b5f60035f8381526020019081526020015f205f3373ffffffffffffffffffffffffffffffffffffffff1673ffffffffffffffffffffffffffffffffffffffff1681526020019081526020015f205411156113075780336040517f682bdbac0000000000000000000000000000000000000000000000000000000081526004016112fe9291906129f3565b60405180910390fd5b3460035f8381526020019081526020015f205f3373ffffffffffffffffffffffffffffffffffffffff1673ffffffffffffffffffffffffffffffffffffffff1681526020019081526020015f208190555060045f8281526020019081526020015f2033908060018154018082558091505060019003905f5260205f20015f9091909190916101000a81548173ffffffffffffffffffffffffffffffffffffffff021916908373ffffffffffffffffffffffffffffffffffffffff1602179055503373ffffffffffffffffffffffffffffffffffffffff16817fe9416adbb49f7917f41bbacee39dc20b227af6f03576494e40dfd5be476effe03460405161140e9190612197565b60405180910390a350565b600a81565b6006602052805f5260405f205f915054906101000a900460ff1681565b611443611f83565b60015f8381526020019081526020015f206040518060a00160405290815f8201805461146e90612a47565b80601f016020809104026020016040519081016040528092919081815260200182805461149a90612a47565b80156114e55780601f106114bc576101008083540402835291602001916114e5565b820191905f5260205f20905b8154815290600101906020018083116114c857829003601f168201915b505050505081526020016001820154815260200160028201548152602001600382015f9054906101000a900473ffffffffffffffffffffffffffffffffffffffff1673ffffffffffffffffffffffffffffffffffffffff1673ffffffffffffffffffffffffffffffffffffffff1681526020016003820160149054906101000a900460ff1615151515815250509050919050565b60025481565b611587611d5a565b5f73ffffffffffffffffffffffffffffffffffffffff168173ffffffffffffffffffffffffffffffffffffffff16036115f7575f6040517f1e4fbdf70000000000000000000000000000000000000000000000000000000081526004016115ee91906124c6565b60405180910390fd5b61160081611de1565b50565b5f5f60015f8481526020019081526020015f2090505f816002015411801561163a57508060030160149054906101000a900460ff16155b801561164a575080600201544211155b915050919050565b5f60015f8981526020019081526020015f2090508060030160149054906101000a900460ff16156116ba57876040517fe1ba032d0000000000000000000000000000000000000000000000000000000081526004016116b19190612197565b60405180910390fd5b5f81600201540361170257876040517f5404ee680000000000000000000000000000000000000000000000000000000081526004016116f99190612197565b60405180910390fd5b600a8787905011156117515786869050600a6040517f7494c592000000000000000000000000000000000000000000000000000000008152600401611748929190612ed0565b60405180910390fd5b848490508787905014158061177857506003878790506117719190612ef7565b8383905014155b156117c7578686905085859050848490506040517fd3f639860000000000000000000000000000000000000000000000000000000081526004016117be93929190612f38565b60405180910390fd5b60065f3373ffffffffffffffffffffffffffffffffffffffff1673ffffffffffffffffffffffffffffffffffffffff1681526020019081526020015f205f9054906101000a900460ff1661185257336040517f8e4a23d600000000000000000000000000000000000000000000000000000000815260040161184991906124c6565b60405180910390fd5b5f5b8787905081101561194c575f60035f8b81526020019081526020015f205f8a8a85818110611885576118846128bd565b5b905060200201602081019061189a919061215d565b73ffffffffffffffffffffffffffffffffffffffff1673ffffffffffffffffffffffffffffffffffffffff1681526020019081526020015f20540361193f57888888838181106118ed576118ec6128bd565b5b9050602002016020810190611902919061215d565b6040517fb812feb30000000000000000000000000000000000000000000000000000000081526004016119369291906129f3565b60405180910390fd5b8080600101915050611854565b505050505050505050565b5f60015f8881526020019081526020015f206001015490505f5b86869050811015611ae9575f8787838181106119905761198f6128bd565b5b90506020020160208101906119a5919061215d565b90505f848787858181106119bc576119bb6128bd565b5b90506020020135856119ce9190612ef7565b6119d89190612ea0565b90505f60035f8c81526020019081526020015f205f8473ffffffffffffffffffffffffffffffffffffffff1673ffffffffffffffffffffffffffffffffffffffff1681526020019081526020015f205490508082611a369190612917565b60055f8573ffffffffffffffffffffffffffffffffffffffff1673ffffffffffffffffffffffffffffffffffffffff1681526020019081526020015f205f828254611a819190612917565b925050819055505f60035f8d81526020019081526020015f205f8573ffffffffffffffffffffffffffffffffffffffff1673ffffffffffffffffffffffffffffffffffffffff1681526020019081526020015f20819055505050508080600101915050611971565b5050505050505050565b5f5b84849050811015611d17575f858583818110611b1457611b136128bd565b5b9050602002016020810190611b29919061215d565b90505f600383611b399190612ef7565b90505f60075f8473ffffffffffffffffffffffffffffffffffffffff1673ffffffffffffffffffffffffffffffffffffffff1681526020019081526020015f209050858583818110611b8e57611b8d6128bd565b5b9050602002016020810190611ba39190612fa3565b60ff16815f015f828254611bb79190612917565b925050819055508585600184611bcd9190612917565b818110611bdd57611bdc6128bd565b5b9050602002016020810190611bf29190612fa3565b60ff16816001015f828254611c079190612917565b925050819055508585600284611c1d9190612917565b818110611c2d57611c2c6128bd565b5b9050602002016020810190611c429190612fa3565b60ff16816002015f828254611c579190612917565b92505081905550806003015f815480929190611c7290612b2a565b91905055508273ffffffffffffffffffffffffffffffffffffffff167f7422c3445cfc7c8b4138fbbf7c7fcf8c9f6a3adfcc49af7c8975676a27e4aa608260030154835f0154611cc29190612ea0565b83600301548460010154611cd69190612ea0565b84600301548560020154611cea9190612ea0565b8560030154604051611cff94939291906124df565b60405180910390a25050508080600101915050611af5565b5050505050565b611d26611ea2565b6002611d38611d33611ee3565b611f0c565b5f0181905550565b6001611d52611d4d611ee3565b611f0c565b5f0181905550565b611d62611f15565b73ffffffffffffffffffffffffffffffffffffffff16611d80610d9a565b73ffffffffffffffffffffffffffffffffffffffff1614611ddf57611da3611f15565b6040517f118cdaa7000000000000000000000000000000000000000000000000000000008152600401611dd691906124c6565b60405180910390fd5b565b5f5f5f9054906101000a900473ffffffffffffffffffffffffffffffffffffffff169050815f5f6101000a81548173ffffffffffffffffffffffffffffffffffffffff021916908373ffffffffffffffffffffffffffffffffffffffff1602179055508173ffffffffffffffffffffffffffffffffffffffff168173ffffffffffffffffffffffffffffffffffffffff167f8be0079c531659141344cd1fd0a4f28419497f9722a3daafe3b4186f6b6457e060405160405180910390a35050565b611eaa611f1c565b15611ee1576040517f3ee5aeb500000000000000000000000000000000000000000000000000000000815260040160405180910390fd5b565b5f7f9b779b17422d0df92223018b32b4d1fa46e071723d6817e2486d003becc55f005f1b905090565b5f819050919050565b5f33905090565b5f6002611f2f611f2a611ee3565b611f0c565b5f015414905090565b6040518061010001604052806008905b6060815260200190600190039081611f485790505090565b604051806101000160405280600890602082028036833780820191505090505090565b6040518060a00160405280606081526020015f81526020015f81526020015f73ffffffffffffffffffffffffffffffffffffffff1681526020015f151581525090565b5f5ffd5b5f5ffd5b5f819050919050565b611fe081611fce565b8114611fea575f5ffd5b50565b5f81359050611ffb81611fd7565b92915050565b5f6020828403121561201657612015611fc6565b5b5f61202384828501611fed565b91505092915050565b5f81519050919050565b5f82825260208201905092915050565b5f819050602082019050919050565b5f73ffffffffffffffffffffffffffffffffffffffff82169050919050565b5f61207e82612055565b9050919050565b61208e81612074565b82525050565b5f61209f8383612085565b60208301905092915050565b5f602082019050919050565b5f6120c18261202c565b6120cb8185612036565b93506120d683612046565b805f5b838110156121065781516120ed8882612094565b97506120f8836120ab565b9250506001810190506120d9565b5085935050505092915050565b5f6020820190508181035f83015261212b81846120b7565b905092915050565b61213c81612074565b8114612146575f5ffd5b50565b5f8135905061215781612133565b92915050565b5f6020828403121561217257612171611fc6565b5b5f61217f84828501612149565b91505092915050565b61219181611fce565b82525050565b5f6020820190506121aa5f830184612188565b92915050565b5f5ffd5b5f5ffd5b5f5ffd5b5f5f83601f8401126121d1576121d06121b0565b5b8235905067ffffffffffffffff8111156121ee576121ed6121b4565b5b60208301915083602082028301111561220a576122096121b8565b5b9250929050565b5f5f83601f840112612226576122256121b0565b5b8235905067ffffffffffffffff811115612243576122426121b4565b5b60208301915083602082028301111561225f5761225e6121b8565b5b9250929050565b5f5f83601f84011261227b5761227a6121b0565b5b8235905067ffffffffffffffff811115612298576122976121b4565b5b6020830191508360208202830111156122b4576122b36121b8565b5b9250929050565b5f8115159050919050565b6122cf816122bb565b81146122d9575f5ffd5b50565b5f813590506122ea816122c6565b92915050565b5f5f5f5f5f5f5f5f60a0898b03121561230c5761230b611fc6565b5b5f6123198b828c01611fed565b985050602089013567ffffffffffffffff81111561233a57612339611fca565b5b6123468b828c016121bc565b9750975050604089013567ffffffffffffffff81111561236957612368611fca565b5b6123758b828c01612211565b9550955050606089013567ffffffffffffffff81111561239857612397611fca565b5b6123a48b828c01612266565b935093505060806123b78b828c016122dc565b9150509295985092959890939650565b5f5f83601f8401126123dc576123db6121b0565b5b8235905067ffffffffffffffff8111156123f9576123f86121b4565b5b602083019150836001820283011115612415576124146121b8565b5b9250929050565b5f5f5f6040848603121561243357612432611fc6565b5b5f84013567ffffffffffffffff8111156124505761244f611fca565b5b61245c868287016123c7565b9350935050602061246f86828701611fed565b9150509250925092565b5f5f6040838503121561248f5761248e611fc6565b5b5f61249c85828601612149565b92505060206124ad858286016122dc565b9150509250929050565b6124c081612074565b82525050565b5f6020820190506124d95f8301846124b7565b92915050565b5f6080820190506124f25f830187612188565b6124ff6020830186612188565b61250c6040830185612188565b6125196060830184612188565b95945050505050565b5f5f6040838503121561253857612537611fc6565b5b5f61254585828601611fed565b925050602061255685828601612149565b9150509250929050565b5f81519050919050565b5f82825260208201905092915050565b8281835e5f83830152505050565b5f601f19601f8301169050919050565b5f6125a282612560565b6125ac818561256a565b93506125bc81856020860161257a565b6125c581612588565b840191505092915050565b6125d9816122bb565b82525050565b5f60a0820190508181035f8301526125f78188612598565b90506126066020830187612188565b6126136040830186612188565b61262060608301856124b7565b61262d60808301846125d0565b9695505050505050565b5f60089050919050565b5f81905092915050565b5f819050919050565b5f82825260208201905092915050565b5f61266e82612560565b6126788185612654565b935061268881856020860161257a565b61269181612588565b840191505092915050565b5f6126a78383612664565b905092915050565b5f602082019050919050565b5f6126c582612637565b6126cf8185612641565b9350836020820285016126e18561264b565b805f5b8581101561271c57848403895281516126fd858261269c565b9450612708836126af565b925060208a019950506001810190506126e4565b50829750879550505050505092915050565b5f60089050919050565b5f81905092915050565b5f819050919050565b61275481611fce565b82525050565b5f612765838361274b565b60208301905092915050565b5f602082019050919050565b6127868161272e565b6127908184612738565b925061279b82612742565b805f5b838110156127cb5781516127b2878261275a565b96506127bd83612771565b92505060018101905061279e565b505050505050565b5f610120820190508181035f8301526127ec81856126bb565b90506127fb602083018461277d565b9392505050565b5f6020820190506128155f8301846125d0565b92915050565b612824816122bb565b82525050565b5f60a083015f8301518482035f8601526128448282612664565b9150506020830151612859602086018261274b565b50604083015161286c604086018261274b565b50606083015161287f6060860182612085565b506080830151612892608086018261281b565b508091505092915050565b5f6020820190508181035f8301526128b5818461282a565b905092915050565b7f4e487b71000000000000000000000000000000000000000000000000000000005f52603260045260245ffd5b7f4e487b71000000000000000000000000000000000000000000000000000000005f52601160045260245ffd5b5f61292182611fce565b915061292c83611fce565b9250828201905080821115612944576129436128ea565b5b92915050565b5f81905092915050565b50565b5f6129625f8361294a565b915061296d82612954565b5f82019050919050565b5f61298182612957565b9150819050919050565b7f5472616e73666572206661696c656400000000000000000000000000000000005f82015250565b5f6129bf600f8361256a565b91506129ca8261298b565b602082019050919050565b5f6020820190508181035f8301526129ec816129b3565b9050919050565b5f604082019050612a065f830185612188565b612a1360208301846124b7565b9392505050565b7f4e487b71000000000000000000000000000000000000000000000000000000005f52602260045260245ffd5b5f6002820490506001821680612a5e57607f821691505b602082108103612a7157612a70612a1a565b5b50919050565b5f819050815f5260205f209050919050565b5f8154612a9581612a47565b612a9f818661256a565b9450600182165f8114612ab95760018114612acf57612b01565b60ff198316865281151560200286019350612b01565b612ad885612a77565b5f5b83811015612af957815481890152600182019150602081019050612ada565b808801955050505b50505092915050565b5f6020820190508181035f830152612b228184612a89565b905092915050565b5f612b3482611fce565b91507fffffffffffffffffffffffffffffffffffffffffffffffffffffffffffffffff8203612b6657612b656128ea565b5b600182019050919050565b7f4e487b71000000000000000000000000000000000000000000000000000000005f52604160045260245ffd5b5f6020601f8301049050919050565b5f82821b905092915050565b5f60088302612be87fffffffffffffffffffffffffffffffffffffffffffffffffffffffffffffffff82612bad565b612bf28683612bad565b95508019841693508086168417925050509392505050565b5f819050919050565b5f612c2d612c28612c2384611fce565b612c0a565b611fce565b9050919050565b5f819050919050565b612c4683612c13565b612c5a612c5282612c34565b848454612bb9565b825550505050565b5f5f905090565b612c71612c62565b612c7c818484612c3d565b505050565b5b81811015612c9f57612c945f82612c69565b600181019050612c82565b5050565b601f821115612ce457612cb581612a77565b612cbe84612b9e565b81016020851015612ccd578190505b612ce1612cd985612b9e565b830182612c81565b50505b505050565b5f82821c905092915050565b5f612d045f1984600802612ce9565b1980831691505092915050565b5f612d1c8383612cf5565b9150826002028217905092915050565b612d3582612560565b67ffffffffffffffff811115612d4e57612d4d612b71565b5b612d588254612a47565b612d63828285612ca3565b5f60209050601f831160018114612d94575f8415612d82578287015190505b612d8c8582612d11565b865550612df3565b601f198416612da286612a77565b5f5b82811015612dc957848901518255600182019150602085019450602081019050612da4565b86831015612de65784890151612de2601f891682612cf5565b8355505b6001600288020188555050505b505050505050565b828183375f83830152505050565b5f612e14838561256a565b9350612e21838584612dfb565b612e2a83612588565b840190509392505050565b5f6060820190508181035f830152612e4e818688612e09565b9050612e5d6020830185612188565b612e6a6040830184612188565b95945050505050565b7f4e487b71000000000000000000000000000000000000000000000000000000005f52601260045260245ffd5b5f612eaa82611fce565b9150612eb583611fce565b925082612ec557612ec4612e73565b5b828204905092915050565b5f604082019050612ee35f830185612188565b612ef06020830184612188565b9392505050565b5f612f0182611fce565b9150612f0c83611fce565b9250828202612f1a81611fce565b91508282048414831517612f3157612f306128ea565b5b5092915050565b5f606082019050612f4b5f830186612188565b612f586020830185612188565b612f656040830184612188565b949350505050565b5f60ff82169050919050565b612f8281612f6d565b8114612f8c575f5ffd5b50565b5f81359050612f9d81612f79565b92915050565b5f60208284031215612fb857612fb7611fc6565b5b5f612fc584828501612f8f565b9150509291505056fea2646970667358221220ad9fcad4ed236b8605dfa785aa8dbc1283cd5c0d967dcb6828b11b213f02ec5164736f6c634300081e0033","linkReferences":{}},"methodIdentifiers":{"MAX_WORKERS()":"d1026018","authorizedResolvers(address)":"d794d2d9","balances(address)":"27e235e3","createMarket(string,uint256)":"883c84c1","getMarket(uint256)":"eb44fdd3","getMarketWorkers(uint256)":"04402c1b","getReputation(address)":"9c89a0e2","getScoringCriteria()":"b85f68ec","isMarketActive(uint256)":"f849f69e","joinMarket(uint256)":"caca6ff5","marketCount()":"ec979082","markets(uint256)":"b1283e77","minStake()":"375b3c0a","owner()":"8da5cb5b","renounceOwnership()":"715018a6","reputation(address)":"b9f79451","requestResolution(uint256)":"416a4f19","resolveMarket(uint256,address[],uint256[],uint8[],bool)":"2e5d2f50","setAuthorizedResolver(address,bool)":"8a948217","stakes(uint256,address)":"a9a3bba4","transferOwnership(address)":"f2fde38b","withdraw()":"3ccfd60b"},"id":27}